{
  "contractName": "ERC",
  "abi": [
    {
      "inputs": [
        {
          "internalType": "string",
          "name": "name_",
          "type": "string"
        },
        {
          "internalType": "string",
          "name": "symbol_",
          "type": "string"
        }
      ],
      "stateMutability": "nonpayable",
      "type": "constructor"
    },
    {
      "anonymous": false,
      "inputs": [
        {
          "indexed": true,
          "internalType": "address",
          "name": "owner",
          "type": "address"
        },
        {
          "indexed": true,
          "internalType": "address",
          "name": "approved",
          "type": "address"
        },
        {
          "indexed": true,
          "internalType": "bytes",
          "name": "dataHash",
          "type": "bytes"
        }
      ],
      "name": "Approval",
      "type": "event"
    },
    {
      "anonymous": false,
      "inputs": [
        {
          "indexed": true,
          "internalType": "address",
          "name": "owner",
          "type": "address"
        },
        {
          "indexed": true,
          "internalType": "address",
          "name": "operator",
          "type": "address"
        },
        {
          "indexed": false,
          "internalType": "bool",
          "name": "approved",
          "type": "bool"
        }
      ],
      "name": "ApprovalForAll",
      "type": "event"
    },
    {
      "anonymous": false,
      "inputs": [
        {
          "indexed": true,
          "internalType": "address",
          "name": "from",
          "type": "address"
        },
        {
          "indexed": true,
          "internalType": "address",
          "name": "to",
          "type": "address"
        },
        {
          "indexed": true,
          "internalType": "bytes",
          "name": "dataHash",
          "type": "bytes"
        }
      ],
      "name": "Transfer",
      "type": "event"
    },
    {
      "anonymous": false,
      "inputs": [
        {
          "indexed": true,
          "internalType": "address",
          "name": "owner",
          "type": "address"
        },
        {
          "indexed": true,
          "internalType": "bytes",
          "name": "newdataHash",
          "type": "bytes"
        }
      ],
      "name": "Updated",
      "type": "event"
    },
    {
      "inputs": [
        {
          "internalType": "bytes4",
          "name": "interfaceId",
          "type": "bytes4"
        }
      ],
      "name": "supportsInterface",
      "outputs": [
        {
          "internalType": "bool",
          "name": "",
          "type": "bool"
        }
      ],
      "stateMutability": "view",
      "type": "function"
    },
    {
      "inputs": [
        {
          "internalType": "address",
          "name": "owner",
          "type": "address"
        }
      ],
      "name": "balanceOf",
      "outputs": [
        {
          "internalType": "uint256",
          "name": "",
          "type": "uint256"
        }
      ],
      "stateMutability": "view",
      "type": "function"
    },
    {
      "inputs": [
        {
          "internalType": "bytes",
          "name": "dataHash",
          "type": "bytes"
        }
      ],
      "name": "ownerOf",
      "outputs": [
        {
          "internalType": "address",
          "name": "",
          "type": "address"
        }
      ],
      "stateMutability": "view",
      "type": "function"
    },
    {
      "inputs": [],
      "name": "name",
      "outputs": [
        {
          "internalType": "string",
          "name": "",
          "type": "string"
        }
      ],
      "stateMutability": "view",
      "type": "function"
    },
    {
      "inputs": [],
      "name": "symbol",
      "outputs": [
        {
          "internalType": "string",
          "name": "",
          "type": "string"
        }
      ],
      "stateMutability": "view",
      "type": "function"
    },
    {
      "inputs": [
        {
          "internalType": "address",
          "name": "to",
          "type": "address"
        },
        {
          "internalType": "bytes",
          "name": "dataHash",
          "type": "bytes"
        }
      ],
      "name": "approve",
      "outputs": [],
      "stateMutability": "nonpayable",
      "type": "function"
    },
    {
      "inputs": [
        {
          "internalType": "bytes",
          "name": "dataHash",
          "type": "bytes"
        }
      ],
      "name": "getApproved",
      "outputs": [
        {
          "internalType": "address",
          "name": "",
          "type": "address"
        }
      ],
      "stateMutability": "view",
      "type": "function"
    },
    {
      "inputs": [
        {
          "internalType": "address",
          "name": "operator",
          "type": "address"
        },
        {
          "internalType": "bool",
          "name": "approved",
          "type": "bool"
        }
      ],
      "name": "setApprovalForAll",
      "outputs": [],
      "stateMutability": "nonpayable",
      "type": "function"
    },
    {
      "inputs": [
        {
          "internalType": "address",
          "name": "owner",
          "type": "address"
        },
        {
          "internalType": "address",
          "name": "operator",
          "type": "address"
        }
      ],
      "name": "isApprovedForAll",
      "outputs": [
        {
          "internalType": "bool",
          "name": "",
          "type": "bool"
        }
      ],
      "stateMutability": "view",
      "type": "function"
    },
    {
      "inputs": [
        {
          "internalType": "address",
          "name": "from",
          "type": "address"
        },
        {
          "internalType": "address",
          "name": "to",
          "type": "address"
        },
        {
          "internalType": "bytes",
          "name": "dataHash",
          "type": "bytes"
        }
      ],
      "name": "transferFrom",
      "outputs": [],
      "stateMutability": "nonpayable",
      "type": "function"
    },
    {
      "inputs": [
        {
          "internalType": "address",
          "name": "from",
          "type": "address"
        },
        {
          "internalType": "address",
          "name": "to",
          "type": "address"
        },
        {
          "internalType": "bytes",
          "name": "dataHash",
          "type": "bytes"
        }
      ],
      "name": "safeTransferFrom",
      "outputs": [],
      "stateMutability": "nonpayable",
      "type": "function"
    },
    {
      "inputs": [
        {
          "internalType": "address",
          "name": "from",
          "type": "address"
        },
        {
          "internalType": "address",
          "name": "to",
          "type": "address"
        },
        {
          "internalType": "bytes",
          "name": "dataHash",
          "type": "bytes"
        },
        {
          "internalType": "bytes",
          "name": "data",
          "type": "bytes"
        }
      ],
      "name": "safeTransferFrom",
      "outputs": [],
      "stateMutability": "nonpayable",
      "type": "function"
    },
    {
      "inputs": [
        {
          "internalType": "address",
          "name": "to",
          "type": "address"
        },
        {
          "internalType": "bytes",
          "name": "dataHash",
          "type": "bytes"
        }
      ],
      "name": "update",
      "outputs": [],
      "stateMutability": "nonpayable",
      "type": "function"
    }
  ],
  "bytecode": "0x60806040523480156200001157600080fd5b506040516200281438038062002814833981810160405281019062000037919062000193565b81600090805190602001906200004f92919062000071565b5080600190805190602001906200006892919062000071565b50505062000337565b8280546200007f90620002a3565b90600052602060002090601f016020900481019282620000a35760008555620000ef565b82601f10620000be57805160ff1916838001178555620000ef565b82800160010185558215620000ef579182015b82811115620000ee578251825591602001919060010190620000d1565b5b509050620000fe919062000102565b5090565b5b808211156200011d57600081600090555060010162000103565b5090565b60006200013862000132846200023a565b62000206565b9050828152602081018484840111156200015157600080fd5b6200015e8482856200026d565b509392505050565b600082601f8301126200017857600080fd5b81516200018a84826020860162000121565b91505092915050565b60008060408385031215620001a757600080fd5b600083015167ffffffffffffffff811115620001c257600080fd5b620001d08582860162000166565b925050602083015167ffffffffffffffff811115620001ee57600080fd5b620001fc8582860162000166565b9150509250929050565b6000604051905081810181811067ffffffffffffffff8211171562000230576200022f62000308565b5b8060405250919050565b600067ffffffffffffffff82111562000258576200025762000308565b5b601f19601f8301169050602081019050919050565b60005b838110156200028d57808201518184015260208101905062000270565b838111156200029d576000848401525b50505050565b60006002820490506001821680620002bc57607f821691505b60208210811415620002d357620002d2620002d9565b5b50919050565b7f4e487b7100000000000000000000000000000000000000000000000000000000600052602260045260246000fd5b7f4e487b7100000000000000000000000000000000000000000000000000000000600052604160045260246000fd5b6124cd80620003476000396000f3fe608060405234801561001057600080fd5b50600436106100cf5760003560e01c8063933290d61161008c578063a22cb46511610066578063a22cb46514610210578063c10e3b8d1461022c578063e985e9c51461025c578063fbae110a1461028c576100cf565b8063933290d6146101a657806395d89b41146101d65780639c2bc6c3146101f4576100cf565b8063014647f4146100d457806301ffc9a7146100f057806302a688ed1461012057806306fdde031461013c578063499726631461015a57806370a0823114610176575b600080fd5b6100ee60048036038101906100e99190611874565b6102a8565b005b61010a600480360381019061010591906118c8565b6103c0565b6040516101179190611f86565b60405180910390f35b61013a60048036038101906101359190611874565b61042a565b005b610144610438565b6040516101519190611fa1565b60405180910390f35b610174600480360381019061016f919061173e565b6104ca565b005b610190600480360381019061018b91906116d9565b61052a565b60405161019d9190612183565b60405180910390f35b6101c060048036038101906101bb919061191a565b6105e2565b6040516101cd9190611f18565b60405180910390f35b6101de61069f565b6040516101eb9190611fa1565b60405180910390f35b61020e6004803603810190610209919061173e565b610731565b005b61022a60048036038101906102259190611838565b610751565b005b6102466004803603810190610241919061191a565b610767565b6040516102539190611f18565b60405180910390f35b61027660048036038101906102719190611702565b6107f7565b6040516102839190611f86565b60405180910390f35b6102a660048036038101906102a191906117a5565b61088b565b005b60006102b3826105e2565b90508073ffffffffffffffffffffffffffffffffffffffff168373ffffffffffffffffffffffffffffffffffffffff161415610324576040517f08c379a000000000000000000000000000000000000000000000000000000000815260040161031b90612023565b60405180910390fd5b8073ffffffffffffffffffffffffffffffffffffffff166103436108ed565b73ffffffffffffffffffffffffffffffffffffffff16148061037257506103718161036c6108ed565b6107f7565b5b6103b1576040517f08c379a00000000000000000000000000000000000000000000000000000000081526004016103a890612143565b60405180910390fd5b6103bb83836108f5565b505050565b60007f01ffc9a7000000000000000000000000000000000000000000000000000000007bffffffffffffffffffffffffffffffffffffffffffffffffffffffff1916827bffffffffffffffffffffffffffffffffffffffffffffffffffffffff1916149050919050565b61043482826109ce565b5050565b60606000805461044790612382565b80601f016020809104026020016040519081016040528092919081815260200182805461047390612382565b80156104c05780601f10610495576101008083540402835291602001916104c0565b820191906000526020600020905b8154815290600101906020018083116104a357829003601f168201915b5050505050905090565b6104db6104d56108ed565b82610b06565b61051a576040517f08c379a000000000000000000000000000000000000000000000000000000000815260040161051190611fe3565b60405180910390fd5b610525838383610be4565b505050565b60008073ffffffffffffffffffffffffffffffffffffffff168273ffffffffffffffffffffffffffffffffffffffff16141561059b576040517f08c379a000000000000000000000000000000000000000000000000000000000815260040161059290612163565b60405180910390fd5b600360008373ffffffffffffffffffffffffffffffffffffffff1673ffffffffffffffffffffffffffffffffffffffff168152602001908152602001600020549050919050565b6000806002836040516105f59190611f01565b908152602001604051809103902060009054906101000a900473ffffffffffffffffffffffffffffffffffffffff169050600073ffffffffffffffffffffffffffffffffffffffff168173ffffffffffffffffffffffffffffffffffffffff161415610696576040517f08c379a000000000000000000000000000000000000000000000000000000000815260040161068d906120a3565b60405180910390fd5b80915050919050565b6060600180546106ae90612382565b80601f01602080910402602001604051908101604052809291908181526020018280546106da90612382565b80156107275780601f106106fc57610100808354040283529160200191610727565b820191906000526020600020905b81548152906001019060200180831161070a57829003601f168201915b5050505050905090565b61074c8383836040518060200160405280600081525061088b565b505050565b61076361075c6108ed565b8383610e6b565b5050565b600061077282610fd8565b6107b1576040517f08c379a00000000000000000000000000000000000000000000000000000000081526004016107a8906120c3565b60405180910390fd5b6004826040516107c19190611f01565b908152602001604051809103902060009054906101000a900473ffffffffffffffffffffffffffffffffffffffff169050919050565b6000600560008473ffffffffffffffffffffffffffffffffffffffff1673ffffffffffffffffffffffffffffffffffffffff16815260200190815260200160002060008373ffffffffffffffffffffffffffffffffffffffff1673ffffffffffffffffffffffffffffffffffffffff16815260200190815260200160002060009054906101000a900460ff16905092915050565b61089c6108966108ed565b83610b06565b6108db576040517f08c379a00000000000000000000000000000000000000000000000000000000081526004016108d290611fe3565b60405180910390fd5b6108e78484848461104f565b50505050565b600033905090565b816004826040516109069190611f01565b908152602001604051809103902060006101000a81548173ffffffffffffffffffffffffffffffffffffffff021916908373ffffffffffffffffffffffffffffffffffffffff160217905550806040516109609190611f01565b60405180910390208273ffffffffffffffffffffffffffffffffffffffff16610988836105e2565b73ffffffffffffffffffffffffffffffffffffffff167f3a27e4f17efa944bfb70ff8015dcefce1a87497605352fbb34d8347138216c3060405160405180910390a45050565b600073ffffffffffffffffffffffffffffffffffffffff168273ffffffffffffffffffffffffffffffffffffffff161415610a3e576040517f08c379a0000000000000000000000000000000000000000000000000000000008152600401610a3590612063565b60405180910390fd5b610a4781610fd8565b610a86576040517f08c379a0000000000000000000000000000000000000000000000000000000008152600401610a7d90612083565b60405180910390fd5b610a8f816110ab565b610aa98282604051806020016040528060008152506111e8565b80604051610ab79190611f01565b60405180910390208273ffffffffffffffffffffffffffffffffffffffff167fcbbecdace00991a8a26d8fc6085c610d5474f351252a818795d55a375a84bfa160405160405180910390a35050565b6000610b1182610fd8565b610b50576040517f08c379a0000000000000000000000000000000000000000000000000000000008152600401610b4790611fc3565b60405180910390fd5b6000610b5b836105e2565b90508073ffffffffffffffffffffffffffffffffffffffff168473ffffffffffffffffffffffffffffffffffffffff161480610b9d5750610b9c81856107f7565b5b80610bdb57508373ffffffffffffffffffffffffffffffffffffffff16610bc384610767565b73ffffffffffffffffffffffffffffffffffffffff16145b91505092915050565b8273ffffffffffffffffffffffffffffffffffffffff16610c04826105e2565b73ffffffffffffffffffffffffffffffffffffffff1614610c5a576040517f08c379a0000000000000000000000000000000000000000000000000000000008152600401610c5190612123565b60405180910390fd5b600073ffffffffffffffffffffffffffffffffffffffff168273ffffffffffffffffffffffffffffffffffffffff161415610cca576040517f08c379a0000000000000000000000000000000000000000000000000000000008152600401610cc190612103565b60405180910390fd5b610cd5838383611243565b610ce06000826108f5565b6001600360008573ffffffffffffffffffffffffffffffffffffffff1673ffffffffffffffffffffffffffffffffffffffff1681526020019081526020016000206000828254610d309190612298565b925050819055506001600360008473ffffffffffffffffffffffffffffffffffffffff1673ffffffffffffffffffffffffffffffffffffffff1681526020019081526020016000206000828254610d879190612242565b9250508190555081600282604051610d9f9190611f01565b908152602001604051809103902060006101000a81548173ffffffffffffffffffffffffffffffffffffffff021916908373ffffffffffffffffffffffffffffffffffffffff16021790555080604051610df99190611f01565b60405180910390208273ffffffffffffffffffffffffffffffffffffffff168473ffffffffffffffffffffffffffffffffffffffff167fd7e0e76a339fe8e46c3a779742dd7c08951ec9048bb513b9e5749820fc3a6fb760405160405180910390a4610e66838383611248565b505050565b8173ffffffffffffffffffffffffffffffffffffffff168373ffffffffffffffffffffffffffffffffffffffff161415610eda576040517f08c379a0000000000000000000000000000000000000000000000000000000008152600401610ed190612043565b60405180910390fd5b80600560008573ffffffffffffffffffffffffffffffffffffffff1673ffffffffffffffffffffffffffffffffffffffff16815260200190815260200160002060008473ffffffffffffffffffffffffffffffffffffffff1673ffffffffffffffffffffffffffffffffffffffff16815260200190815260200160002060006101000a81548160ff0219169083151502179055508173ffffffffffffffffffffffffffffffffffffffff168373ffffffffffffffffffffffffffffffffffffffff167f17307eab39ab6107e8899845ad3d59bd9653f200f220920489ca2b5937696c3183604051610fcb9190611f86565b60405180910390a3505050565b60008073ffffffffffffffffffffffffffffffffffffffff166002836040516110019190611f01565b908152602001604051809103902060009054906101000a900473ffffffffffffffffffffffffffffffffffffffff1673ffffffffffffffffffffffffffffffffffffffff1614159050919050565b61105a848484610be4565b6110668484848461124d565b6110a5576040517f08c379a000000000000000000000000000000000000000000000000000000000815260040161109c90612003565b60405180910390fd5b50505050565b60006110b6826105e2565b90506110c481600084611243565b6110cf6000836108f5565b6001600360008373ffffffffffffffffffffffffffffffffffffffff1673ffffffffffffffffffffffffffffffffffffffff168152602001908152602001600020600082825461111f9190612298565b925050819055506002826040516111369190611f01565b908152602001604051809103902060006101000a81549073ffffffffffffffffffffffffffffffffffffffff0219169055816040516111759190611f01565b6040518091039020600073ffffffffffffffffffffffffffffffffffffffff168273ffffffffffffffffffffffffffffffffffffffff167fd7e0e76a339fe8e46c3a779742dd7c08951ec9048bb513b9e5749820fc3a6fb760405160405180910390a46111e481600084611248565b5050565b6111f283836113e4565b6111ff600084848461124d565b61123e576040517f08c379a000000000000000000000000000000000000000000000000000000000815260040161123590612003565b60405180910390fd5b505050565b505050565b505050565b600061126e8473ffffffffffffffffffffffffffffffffffffffff166115de565b156113d7578373ffffffffffffffffffffffffffffffffffffffff166382979c106112976108ed565b8786866040518563ffffffff1660e01b81526004016112b99493929190611f33565b602060405180830381600087803b1580156112d357600080fd5b505af192505050801561130457506040513d601f19601f8201168201806040525081019061130191906118f1565b60015b611387573d8060008114611334576040519150601f19603f3d011682016040523d82523d6000602084013e611339565b606091505b5060008151141561137f576040517f08c379a000000000000000000000000000000000000000000000000000000000815260040161137690612003565b60405180910390fd5b805181602001fd5b6382979c1060e01b7bffffffffffffffffffffffffffffffffffffffffffffffffffffffff1916817bffffffffffffffffffffffffffffffffffffffffffffffffffffffff1916149150506113dc565b600190505b949350505050565b600073ffffffffffffffffffffffffffffffffffffffff168273ffffffffffffffffffffffffffffffffffffffff161415611454576040517f08c379a000000000000000000000000000000000000000000000000000000000815260040161144b90612063565b60405180910390fd5b61145d81610fd8565b1561149d576040517f08c379a0000000000000000000000000000000000000000000000000000000008152600401611494906120e3565b60405180910390fd5b6114a960008383611243565b6001600360008473ffffffffffffffffffffffffffffffffffffffff1673ffffffffffffffffffffffffffffffffffffffff16815260200190815260200160002060008282546114f99190612242565b92505081905550816002826040516115119190611f01565b908152602001604051809103902060006101000a81548173ffffffffffffffffffffffffffffffffffffffff021916908373ffffffffffffffffffffffffffffffffffffffff1602179055508060405161156b9190611f01565b60405180910390208273ffffffffffffffffffffffffffffffffffffffff16600073ffffffffffffffffffffffffffffffffffffffff167fd7e0e76a339fe8e46c3a779742dd7c08951ec9048bb513b9e5749820fc3a6fb760405160405180910390a46115da60008383611248565b5050565b6000808273ffffffffffffffffffffffffffffffffffffffff16803b806020016040519081016040528181526000908060200190933c51119050919050565b600061163061162b846121cf565b61219e565b90508281526020810184848401111561164857600080fd5b611653848285612340565b509392505050565b60008135905061166a81612452565b92915050565b60008135905061167f81612469565b92915050565b60008135905061169481612480565b92915050565b6000815190506116a981612480565b92915050565b600082601f8301126116c057600080fd5b81356116d084826020860161161d565b91505092915050565b6000602082840312156116eb57600080fd5b60006116f98482850161165b565b91505092915050565b6000806040838503121561171557600080fd5b60006117238582860161165b565b92505060206117348582860161165b565b9150509250929050565b60008060006060848603121561175357600080fd5b60006117618682870161165b565b93505060206117728682870161165b565b925050604084013567ffffffffffffffff81111561178f57600080fd5b61179b868287016116af565b9150509250925092565b600080600080608085870312156117bb57600080fd5b60006117c98782880161165b565b94505060206117da8782880161165b565b935050604085013567ffffffffffffffff8111156117f757600080fd5b611803878288016116af565b925050606085013567ffffffffffffffff81111561182057600080fd5b61182c878288016116af565b91505092959194509250565b6000806040838503121561184b57600080fd5b60006118598582860161165b565b925050602061186a85828601611670565b9150509250929050565b6000806040838503121561188757600080fd5b60006118958582860161165b565b925050602083013567ffffffffffffffff8111156118b257600080fd5b6118be858286016116af565b9150509250929050565b6000602082840312156118da57600080fd5b60006118e884828501611685565b91505092915050565b60006020828403121561190357600080fd5b60006119118482850161169a565b91505092915050565b60006020828403121561192c57600080fd5b600082013567ffffffffffffffff81111561194657600080fd5b611952848285016116af565b91505092915050565b611964816122cc565b82525050565b611973816122de565b82525050565b6000611984826121ff565b61198e8185612215565b935061199e81856020860161234f565b6119a781612441565b840191505092915050565b60006119bd826121ff565b6119c78185612226565b93506119d781856020860161234f565b80840191505092915050565b60006119ee8261220a565b6119f88185612231565b9350611a0881856020860161234f565b611a1181612441565b840191505092915050565b6000611a29602983612231565b91507f4552433a206f70657261746f7220717565727920666f72206e6f6e657869737460008301527f656e7420746f6b656e00000000000000000000000000000000000000000000006020830152604082019050919050565b6000611a8f602e83612231565b91507f4552433a207472616e736665722063616c6c6572206973206e6f74206f776e6560008301527f72206e6f7220617070726f7665640000000000000000000000000000000000006020830152604082019050919050565b6000611af5602c83612231565b91507f4552433a207472616e7366657220746f206e6f6e20455243526563656976657260008301527f20696d706c656d656e74657200000000000000000000000000000000000000006020830152604082019050919050565b6000611b5b601e83612231565b91507f4552433a20617070726f76616c20746f2063757272656e74206f776e657200006000830152602082019050919050565b6000611b9b601683612231565b91507f4552433a20617070726f766520746f2063616c6c6572000000000000000000006000830152602082019050919050565b6000611bdb601d83612231565b91507f4552433a206d696e7420746f20746865207a65726f20616464726573730000006000830152602082019050919050565b6000611c1b602083612231565b91507f63616e206f6e6c7920757064617465206578697374696e6720746f6b656e73206000830152602082019050919050565b6000611c5b602683612231565b91507f4552433a206f776e657220717565727920666f72206e6f6e6578697374656e7460008301527f20746f6b656e00000000000000000000000000000000000000000000000000006020830152604082019050919050565b6000611cc1602983612231565b91507f4552433a20617070726f76656420717565727920666f72206e6f6e657869737460008301527f656e7420746f6b656e00000000000000000000000000000000000000000000006020830152604082019050919050565b6000611d27601983612231565b91507f4552433a20746f6b656e20616c7265616479206d696e746564000000000000006000830152602082019050919050565b6000611d67602183612231565b91507f4552433a207472616e7366657220746f20746865207a65726f2061646472657360008301527f73000000000000000000000000000000000000000000000000000000000000006020830152604082019050919050565b6000611dcd602283612231565b91507f4552433a207472616e736665722066726f6d20696e636f7272656374206f776e60008301527f65720000000000000000000000000000000000000000000000000000000000006020830152604082019050919050565b6000611e33603583612231565b91507f4552433a20617070726f76652063616c6c6572206973206e6f74206f776e657260008301527f206e6f7220617070726f76656420666f7220616c6c00000000000000000000006020830152604082019050919050565b6000611e99602683612231565b91507f4552433a2061646472657373207a65726f206973206e6f7420612076616c696460008301527f206f776e657200000000000000000000000000000000000000000000000000006020830152604082019050919050565b611efb81612336565b82525050565b6000611f0d82846119b2565b915081905092915050565b6000602082019050611f2d600083018461195b565b92915050565b6000608082019050611f48600083018761195b565b611f55602083018661195b565b8181036040830152611f678185611979565b90508181036060830152611f7b8184611979565b905095945050505050565b6000602082019050611f9b600083018461196a565b92915050565b60006020820190508181036000830152611fbb81846119e3565b905092915050565b60006020820190508181036000830152611fdc81611a1c565b9050919050565b60006020820190508181036000830152611ffc81611a82565b9050919050565b6000602082019050818103600083015261201c81611ae8565b9050919050565b6000602082019050818103600083015261203c81611b4e565b9050919050565b6000602082019050818103600083015261205c81611b8e565b9050919050565b6000602082019050818103600083015261207c81611bce565b9050919050565b6000602082019050818103600083015261209c81611c0e565b9050919050565b600060208201905081810360008301526120bc81611c4e565b9050919050565b600060208201905081810360008301526120dc81611cb4565b9050919050565b600060208201905081810360008301526120fc81611d1a565b9050919050565b6000602082019050818103600083015261211c81611d5a565b9050919050565b6000602082019050818103600083015261213c81611dc0565b9050919050565b6000602082019050818103600083015261215c81611e26565b9050919050565b6000602082019050818103600083015261217c81611e8c565b9050919050565b60006020820190506121986000830184611ef2565b92915050565b6000604051905081810181811067ffffffffffffffff821117156121c5576121c4612412565b5b8060405250919050565b600067ffffffffffffffff8211156121ea576121e9612412565b5b601f19601f8301169050602081019050919050565b600081519050919050565b600081519050919050565b600082825260208201905092915050565b600081905092915050565b600082825260208201905092915050565b600061224d82612336565b915061225883612336565b9250827fffffffffffffffffffffffffffffffffffffffffffffffffffffffffffffffff0382111561228d5761228c6123b4565b5b828201905092915050565b60006122a382612336565b91506122ae83612336565b9250828210156122c1576122c06123b4565b5b828203905092915050565b60006122d782612316565b9050919050565b60008115159050919050565b60007fffffffff0000000000000000000000000000000000000000000000000000000082169050919050565b600073ffffffffffffffffffffffffffffffffffffffff82169050919050565b6000819050919050565b82818337600083830152505050565b60005b8381101561236d578082015181840152602081019050612352565b8381111561237c576000848401525b50505050565b6000600282049050600182168061239a57607f821691505b602082108114156123ae576123ad6123e3565b5b50919050565b7f4e487b7100000000000000000000000000000000000000000000000000000000600052601160045260246000fd5b7f4e487b7100000000000000000000000000000000000000000000000000000000600052602260045260246000fd5b7f4e487b7100000000000000000000000000000000000000000000000000000000600052604160045260246000fd5b6000601f19601f8301169050919050565b61245b816122cc565b811461246657600080fd5b50565b612472816122de565b811461247d57600080fd5b50565b612489816122ea565b811461249457600080fd5b5056fea26469706673582212203c89af51bc2e1f799d6436809daf5854540c89aa0734b0a08e1600eb97b138a664736f6c63430008000033",
  "immutableReferences": {},
  "source": "// SPDX-License-Identifier: MIT\n// OpenZeppelin Contracts (last updated v4.6.0) (token/ERC/ERC.sol)\n\npragma solidity ^0.8.0;\n\nimport \"./interfaces/IERC.sol\";\nimport \"./interfaces/IERCReceiver.sol\";\nimport \"./Dependencies/Address.sol\";\nimport \"./Dependencies/Context.sol\";\nimport \"./Dependencies/Strings.sol\";\nimport \"./Dependencies/ERC165.sol\";\n\n/**\n * @dev Implementation of https://eips.ethereum.org/EIPS/eip-721[ERC] Non-Fungible Token Standard, including\n * the Metadata extension, but not including the Enumerable extension, which is available separately as\n * {ERCEnumerable}.\n */\ncontract ERC is Context, ERC165, IERC {\n    using Address for address;\n    using Strings for uint256;\n\n    // Token name\n    string private _name;\n\n    // Token symbol\n    string private _symbol;\n\n    // Mapping from token ID to owner address\n    mapping(bytes  => address) private _owners;\n\n    // Mapping owner address to token count\n    mapping(address => uint256) private _balances;\n\n    // Mapping from token ID to approved address\n    mapping(bytes  => address) private _tokenApprovals;\n\n    // Mapping from owner to operator approvals\n    mapping(address => mapping(address => bool)) private _operatorApprovals;\n\n    /**\n     * @dev Initializes the contract by setting a `name` and a `symbol` to the token collection.\n     */\n    constructor(string memory name_, string memory symbol_) {\n        _name = name_;\n        _symbol = symbol_;\n    }\n\n\n\n    /**\n     * @dev See {IERC-balanceOf}.\n     */\n    function balanceOf(address owner) public view virtual override returns (uint256) {\n        require(owner != address(0), \"ERC: address zero is not a valid owner\");\n        return _balances[owner];\n    }\n\n    /**\n     * @dev See {IERC-ownerOf}.\n     */\n    function ownerOf(bytes memory dataHash) public view virtual override returns (address) {\n        address owner = _owners[dataHash];\n        require(owner != address(0), \"ERC: owner query for nonexistent token\");\n        return owner;\n    }\n\n    /**\n     * @dev See {IERCMetadata-name}.\n     */\n    function name() public view virtual  returns (string memory) {\n        return _name;\n    }\n\n    /**\n     * @dev See {IERCMetadata-symbol}.\n     */\n    function symbol() public view virtual returns (string memory) {\n        return _symbol;\n    }\n\n\n    /**\n     * @dev See {IERC-approve}.\n     */\n    function approve(address to, bytes memory dataHash) public virtual override {\n        address owner = ERC.ownerOf(dataHash);\n        require(to != owner, \"ERC: approval to current owner\");\n\n        require(\n            _msgSender() == owner || isApprovedForAll(owner, _msgSender()),\n            \"ERC: approve caller is not owner nor approved for all\"\n        );\n\n        _approve(to, dataHash);\n    }\n\n    /**\n     * @dev See {IERC-getApproved}.\n     */\n    function getApproved(bytes memory dataHash) public view virtual override returns (address) {\n        require(_exists(dataHash), \"ERC: approved query for nonexistent token\");\n\n        return _tokenApprovals[dataHash];\n    }\n\n    /**\n     * @dev See {IERC-setApprovalForAll}.\n     */\n    function setApprovalForAll(address operator, bool approved) public virtual override {\n        _setApprovalForAll(_msgSender(), operator, approved);\n    }\n\n    /**\n     * @dev See {IERC-isApprovedForAll}.\n     */\n    function isApprovedForAll(address owner, address operator) public view virtual override returns (bool) {\n        return _operatorApprovals[owner][operator];\n    }\n\n    /**\n     * @dev See {IERC-transferFrom}.\n     */\n    function transferFrom(\n        address from,\n        address to,\n        bytes memory dataHash\n    ) public virtual override {\n        //solhint-disable-next-line max-line-length\n        require(_isApprovedOrOwner(_msgSender(), dataHash), \"ERC: transfer caller is not owner nor approved\");\n\n        _transfer(from, to, dataHash);\n    }\n\n    /**\n     * @dev See {IERC-safeTransferFrom}.\n     */\n    function safeTransferFrom(\n        address from,\n        address to,\n        bytes memory dataHash\n    ) public virtual override {\n        safeTransferFrom(from, to, dataHash, \"\");\n    }\n\n    /**\n     * @dev See {IERC-safeTransferFrom}.\n     */\n    function safeTransferFrom(\n        address from,\n        address to,\n        bytes memory dataHash,\n        bytes memory data\n    ) public virtual override {\n        require(_isApprovedOrOwner(_msgSender(), dataHash), \"ERC: transfer caller is not owner nor approved\");\n        _safeTransfer(from, to, dataHash, data);\n    }\n\n    /**\n     * @dev Safely transfers `dataHash` token from `from` to `to`, checking first that contract recipients\n     * are aware of the ERC protocol to prevent tokens from being forever locked.\n     *\n     * `data` is additional data, it has no specified format and it is sent in call to `to`.\n     *\n     * This internal function is equivalent to {safeTransferFrom}, and can be used to e.g.\n     * implement alternative mechanisms to perform token transfer, such as signature-based.\n     *\n     * Requirements:\n     *\n     * - `from` cannot be the zero address.\n     * - `to` cannot be the zero address.\n     * - `dataHash` token must exist and be owned by `from`.\n     * - If `to` refers to a smart contract, it must implement {IERCReceiver-onERCReceived}, which is called upon a safe transfer.\n     *\n     * Emits a {Transfer} event.\n     */\n    function _safeTransfer(\n        address from,\n        address to,\n        bytes memory dataHash,\n        bytes memory data\n    ) internal virtual {\n        _transfer(from, to, dataHash);\n        require(_checkOnERCReceived(from, to, dataHash, data), \"ERC: transfer to non ERCReceiver implementer\");\n    }\n\n    /**\n     * @dev Returns whether `dataHash` exists.\n     *\n     * Tokens can be managed by their owner or approved accounts via {approve} or {setApprovalForAll}.\n     *\n     * Tokens start existing when they are minted (`_mint`),\n     * and stop existing when they are burned (`_burn`).\n     */\n    function _exists(bytes memory dataHash) internal view virtual returns (bool) {\n        return _owners[dataHash] != address(0);\n    }\n\n    /**\n     * @dev Returns whether `spender` is allowed to manage `dataHash`.\n     *\n     * Requirements:\n     *\n     * - `dataHash` must exist.\n     */\n    function _isApprovedOrOwner(address spender, bytes memory dataHash) internal view virtual returns (bool) {\n        require(_exists(dataHash), \"ERC: operator query for nonexistent token\");\n        address owner = ERC.ownerOf(dataHash);\n        return (spender == owner || isApprovedForAll(owner, spender) || getApproved(dataHash) == spender);\n    }\n\n    /**\n     * @dev Safely mints `dataHash` and transfers it to `to`.\n     *\n     * Requirements:\n     *\n     * - `dataHash` must not exist.\n     * - If `to` refers to a smart contract, it must implement {IERCReceiver-onERCReceived}, which is called upon a safe transfer.\n     *\n     * Emits a {Transfer} event.\n     */\n    function _safeMint(address to, bytes memory dataHash) internal virtual {\n        _safeMint(to, dataHash, \"\");\n    }\n\n    /**\n     * @dev Same as {xref-ERC-_safeMint-address-uint256-}[`_safeMint`], with an additional `data` parameter which is\n     * forwarded in {IERCReceiver-onERCReceived} to contract recipients.\n     */\n    function _safeMint(\n        address to,\n        bytes memory dataHash,\n        bytes memory data\n    ) internal virtual {\n        _mint(to, dataHash);\n        require(\n            _checkOnERCReceived(address(0), to, dataHash, data),\n            \"ERC: transfer to non ERCReceiver implementer\"\n        );\n    }\n\n    /**\n     * @dev Mints `dataHash` and transfers it to `to`.\n     *\n     * WARNING: Usage of this method is discouraged, use {_safeMint} whenever possible\n     *\n     * Requirements:\n     *\n     * - `dataHash` must not exist.\n     * - `to` cannot be the zero address.\n     *\n     * Emits a {Transfer} event.\n     */\n    function _mint(address to, bytes memory dataHash) internal virtual {\n        require(to != address(0), \"ERC: mint to the zero address\");\n        require(!_exists(dataHash), \"ERC: token already minted\");\n\n        _beforeTokenTransfer(address(0), to, dataHash);\n\n        _balances[to] += 1;\n        _owners[dataHash] = to;\n\n        emit Transfer(address(0), to, dataHash);\n\n        _afterTokenTransfer(address(0), to, dataHash);\n    }\n\n    /**\n     * @dev Destroys `dataHash`.\n     * The approval is cleared when the token is burned.\n     *\n     * Requirements:\n     *\n     * - `dataHash` must exist.\n     *\n     * Emits a {Transfer} event.\n     */\n    function _burn(bytes memory dataHash) internal virtual {\n        address owner = ERC.ownerOf(dataHash);\n\n        _beforeTokenTransfer(owner, address(0), dataHash);\n\n        // Clear approvals\n        _approve(address(0), dataHash);\n\n        _balances[owner] -= 1;\n        delete _owners[dataHash];\n\n        emit Transfer(owner, address(0), dataHash);\n\n        _afterTokenTransfer(owner, address(0), dataHash);\n    }\n\n    /**\n     * @dev Transfers `dataHash` from `from` to `to`.\n     *  As opposed to {transferFrom}, this imposes no restrictions on msg.sender.\n     *\n     * Requirements:\n     *\n     * - `to` cannot be the zero address.\n     * - `dataHash` token must be owned by `from`.\n     *\n     * Emits a {Transfer} event.\n     */\n    function _transfer(\n        address from,\n        address to,\n        bytes memory dataHash\n    ) internal virtual {\n        require(ERC.ownerOf(dataHash) == from, \"ERC: transfer from incorrect owner\");\n        require(to != address(0), \"ERC: transfer to the zero address\");\n\n        _beforeTokenTransfer(from, to, dataHash);\n\n        // Clear approvals from the previous owner\n        _approve(address(0), dataHash);\n\n        _balances[from] -= 1;\n        _balances[to] += 1;\n        _owners[dataHash] = to;\n\n        emit Transfer(from, to, dataHash);\n\n        _afterTokenTransfer(from, to, dataHash);\n    }\n\n    /**\n     * @dev Approve `to` to operate on `dataHash`\n     *\n     * Emits an {Approval} event.\n     */\n    function _approve(address to, bytes memory dataHash) internal virtual {\n        _tokenApprovals[dataHash] = to;\n        emit Approval(ERC.ownerOf(dataHash), to, dataHash);\n    }\n\n    /**\n     * @dev Approve `operator` to operate on all of `owner` tokens\n     *\n     * Emits an {ApprovalForAll} event.\n     */\n    function _setApprovalForAll(\n        address owner,\n        address operator,\n        bool approved\n    ) internal virtual {\n        require(owner != operator, \"ERC: approve to caller\");\n        _operatorApprovals[owner][operator] = approved;\n        emit ApprovalForAll(owner, operator, approved);\n    }\n\n\n    function _update(address to ,bytes memory dataHash)internal virtual{\n        require(to != address(0), \"ERC: mint to the zero address\");\n        require(_exists(dataHash), \"can only update existing tokens \");\n        _burn( dataHash);\n        _safeMint(to, dataHash, \"\");\n        emit Updated(to, dataHash);\n\n    }\n\n    function update(address to, bytes memory dataHash) public virtual override {\n       _update(to ,dataHash) ;\n    }\n\n    \n\n    /**\n     * @dev Internal function to invoke {IERCReceiver-onERCReceived} on a target address.\n     * The call is not executed if the target address is not a contract.\n     *\n     * @param from address representing the previous owner of the given token ID\n     * @param to target address that will receive the tokens\n     * @param dataHash uint256 ID of the token to be transferred\n     * @param data bytes optional data to send along with the call\n     * @return bool whether the call correctly returned the expected magic value\n     */\n    function _checkOnERCReceived(\n        address from,\n        address to,\n        bytes memory dataHash,\n        bytes memory data\n    ) private returns (bool) {\n        if (to.isContract()) {\n            try IERCReceiver(to).onERCReceived(_msgSender(), from, dataHash, data) returns (bytes4 retval) {\n                return retval == IERCReceiver.onERCReceived.selector;\n            } catch (bytes memory reason) {\n                if (reason.length == 0) {\n                    revert(\"ERC: transfer to non ERCReceiver implementer\");\n                } else {\n                    assembly {\n                        revert(add(32, reason), mload(reason))\n                    }\n                }\n            }\n        } else {\n            return true;\n        }\n    }\n\n    /**\n     * @dev Hook that is called before any token transfer. This includes minting\n     * and burning.\n     *\n     * Calling conditions:\n     *\n     * - When `from` and `to` are both non-zero, ``from``'s `dataHash` will be\n     * transferred to `to`.\n     * - When `from` is zero, `dataHash` will be minted for `to`.\n     * - When `to` is zero, ``from``'s `dataHash` will be burned.\n     * - `from` and `to` are never both zero.\n     *\n     * To learn more about hooks, head to xref:ROOT:extending-contracts.adoc#using-hooks[Using Hooks].\n     */\n    function _beforeTokenTransfer(\n        address from,\n        address to,\n        bytes memory dataHash\n    ) internal virtual {}\n\n    /**\n     * @dev Hook that is called after any transfer of tokens. This includes\n     * minting and burning.\n     *\n     * Calling conditions:\n     *\n     * - when `from` and `to` are both non-zero.\n     * - `from` and `to` are never both zero.\n     *\n     * To learn more about hooks, head to xref:ROOT:extending-contracts.adoc#using-hooks[Using Hooks].\n     */\n    function _afterTokenTransfer(\n        address from,\n        address to,\n        bytes memory dataHash\n    ) internal virtual {}\n}",
  "sourcePath": "/Users/fenzyresearch/Downloads/DataToken/contracts/ERC.sol",
  "compiler": {
    "name": "solc",
    "version": "0.8.0+commit.c7dfd78e.Emscripten.clang"
  },
  "schemaVersion": "3.4.6",
  "updatedAt": "2022-05-20T12:19:38.057Z",
  "devdoc": {
    "details": "Implementation of https://eips.ethereum.org/EIPS/eip-721[ERC] Non-Fungible Token Standard, including the Metadata extension, but not including the Enumerable extension, which is available separately as {ERCEnumerable}.",
    "kind": "dev",
    "methods": {
      "approve(address,bytes)": {
        "details": "See {IERC-approve}."
      },
      "balanceOf(address)": {
        "details": "See {IERC-balanceOf}."
      },
      "constructor": {
        "details": "Initializes the contract by setting a `name` and a `symbol` to the token collection."
      },
      "getApproved(bytes)": {
        "details": "See {IERC-getApproved}."
      },
      "isApprovedForAll(address,address)": {
        "details": "See {IERC-isApprovedForAll}."
      },
      "name()": {
        "details": "See {IERCMetadata-name}."
      },
      "ownerOf(bytes)": {
        "details": "See {IERC-ownerOf}."
      },
      "safeTransferFrom(address,address,bytes)": {
        "details": "See {IERC-safeTransferFrom}."
      },
      "safeTransferFrom(address,address,bytes,bytes)": {
        "details": "See {IERC-safeTransferFrom}."
      },
      "setApprovalForAll(address,bool)": {
        "details": "See {IERC-setApprovalForAll}."
      },
      "supportsInterface(bytes4)": {
        "details": "See {IERC165-supportsInterface}."
      },
      "symbol()": {
        "details": "See {IERCMetadata-symbol}."
      },
      "transferFrom(address,address,bytes)": {
        "details": "See {IERC-transferFrom}."
      },
      "update(address,bytes)": {
        "details": "updates the data content of token. Requirements: - `dataHash` must exist."
      }
    },
    "version": 1
  },
  "userdoc": {
    "kind": "user",
    "methods": {},
    "version": 1
  }
}