{
  "contractName": "MyToken",
  "abi": [
    {
      "inputs": [],
      "stateMutability": "nonpayable",
      "type": "constructor"
    },
    {
      "anonymous": false,
      "inputs": [
        {
          "indexed": true,
          "internalType": "address",
          "name": "owner",
          "type": "address"
        },
        {
          "indexed": true,
          "internalType": "address",
          "name": "approved",
          "type": "address"
        },
        {
          "indexed": true,
          "internalType": "bytes",
          "name": "dataHash",
          "type": "bytes"
        }
      ],
      "name": "Approval",
      "type": "event"
    },
    {
      "anonymous": false,
      "inputs": [
        {
          "indexed": true,
          "internalType": "address",
          "name": "owner",
          "type": "address"
        },
        {
          "indexed": true,
          "internalType": "address",
          "name": "operator",
          "type": "address"
        },
        {
          "indexed": false,
          "internalType": "bool",
          "name": "approved",
          "type": "bool"
        }
      ],
      "name": "ApprovalForAll",
      "type": "event"
    },
    {
      "anonymous": false,
      "inputs": [
        {
          "indexed": true,
          "internalType": "address",
          "name": "previousOwner",
          "type": "address"
        },
        {
          "indexed": true,
          "internalType": "address",
          "name": "newOwner",
          "type": "address"
        }
      ],
      "name": "OwnershipTransferred",
      "type": "event"
    },
    {
      "anonymous": false,
      "inputs": [
        {
          "indexed": true,
          "internalType": "address",
          "name": "from",
          "type": "address"
        },
        {
          "indexed": true,
          "internalType": "address",
          "name": "to",
          "type": "address"
        },
        {
          "indexed": true,
          "internalType": "bytes",
          "name": "dataHash",
          "type": "bytes"
        }
      ],
      "name": "Transfer",
      "type": "event"
    },
    {
      "anonymous": false,
      "inputs": [
        {
          "indexed": true,
          "internalType": "address",
          "name": "owner",
          "type": "address"
        },
        {
          "indexed": true,
          "internalType": "bytes",
          "name": "newdataHash",
          "type": "bytes"
        }
      ],
      "name": "Updated",
      "type": "event"
    },
    {
      "anonymous": false,
      "inputs": [
        {
          "indexed": false,
          "internalType": "bytes",
          "name": "tokenId",
          "type": "bytes"
        },
        {
          "indexed": false,
          "internalType": "address",
          "name": "owner",
          "type": "address"
        },
        {
          "indexed": false,
          "internalType": "string",
          "name": "name",
          "type": "string"
        },
        {
          "indexed": false,
          "internalType": "uint256",
          "name": "time",
          "type": "uint256"
        }
      ],
      "name": "profileCreated",
      "type": "event"
    },
    {
      "inputs": [
        {
          "internalType": "address",
          "name": "to",
          "type": "address"
        },
        {
          "internalType": "bytes",
          "name": "dataHash",
          "type": "bytes"
        }
      ],
      "name": "approve",
      "outputs": [],
      "stateMutability": "nonpayable",
      "type": "function"
    },
    {
      "inputs": [
        {
          "internalType": "address",
          "name": "owner",
          "type": "address"
        }
      ],
      "name": "balanceOf",
      "outputs": [
        {
          "internalType": "uint256",
          "name": "",
          "type": "uint256"
        }
      ],
      "stateMutability": "view",
      "type": "function"
    },
    {
      "inputs": [
        {
          "internalType": "bytes",
          "name": "dataHash",
          "type": "bytes"
        }
      ],
      "name": "getApproved",
      "outputs": [
        {
          "internalType": "address",
          "name": "",
          "type": "address"
        }
      ],
      "stateMutability": "view",
      "type": "function"
    },
    {
      "inputs": [
        {
          "internalType": "address",
          "name": "owner",
          "type": "address"
        },
        {
          "internalType": "address",
          "name": "operator",
          "type": "address"
        }
      ],
      "name": "isApprovedForAll",
      "outputs": [
        {
          "internalType": "bool",
          "name": "",
          "type": "bool"
        }
      ],
      "stateMutability": "view",
      "type": "function"
    },
    {
      "inputs": [],
      "name": "name",
      "outputs": [
        {
          "internalType": "string",
          "name": "",
          "type": "string"
        }
      ],
      "stateMutability": "view",
      "type": "function"
    },
    {
      "inputs": [],
      "name": "owner",
      "outputs": [
        {
          "internalType": "address",
          "name": "",
          "type": "address"
        }
      ],
      "stateMutability": "view",
      "type": "function"
    },
    {
      "inputs": [
        {
          "internalType": "bytes",
          "name": "dataHash",
          "type": "bytes"
        }
      ],
      "name": "ownerOf",
      "outputs": [
        {
          "internalType": "address",
          "name": "",
          "type": "address"
        }
      ],
      "stateMutability": "view",
      "type": "function"
    },
    {
      "inputs": [],
      "name": "renounceOwnership",
      "outputs": [],
      "stateMutability": "nonpayable",
      "type": "function"
    },
    {
      "inputs": [
        {
          "internalType": "address",
          "name": "from",
          "type": "address"
        },
        {
          "internalType": "address",
          "name": "to",
          "type": "address"
        },
        {
          "internalType": "bytes",
          "name": "dataHash",
          "type": "bytes"
        }
      ],
      "name": "safeTransferFrom",
      "outputs": [],
      "stateMutability": "nonpayable",
      "type": "function"
    },
    {
      "inputs": [
        {
          "internalType": "address",
          "name": "from",
          "type": "address"
        },
        {
          "internalType": "address",
          "name": "to",
          "type": "address"
        },
        {
          "internalType": "bytes",
          "name": "dataHash",
          "type": "bytes"
        },
        {
          "internalType": "bytes",
          "name": "data",
          "type": "bytes"
        }
      ],
      "name": "safeTransferFrom",
      "outputs": [],
      "stateMutability": "nonpayable",
      "type": "function"
    },
    {
      "inputs": [
        {
          "internalType": "address",
          "name": "operator",
          "type": "address"
        },
        {
          "internalType": "bool",
          "name": "approved",
          "type": "bool"
        }
      ],
      "name": "setApprovalForAll",
      "outputs": [],
      "stateMutability": "nonpayable",
      "type": "function"
    },
    {
      "inputs": [
        {
          "internalType": "bytes4",
          "name": "interfaceId",
          "type": "bytes4"
        }
      ],
      "name": "supportsInterface",
      "outputs": [
        {
          "internalType": "bool",
          "name": "",
          "type": "bool"
        }
      ],
      "stateMutability": "view",
      "type": "function"
    },
    {
      "inputs": [],
      "name": "symbol",
      "outputs": [
        {
          "internalType": "string",
          "name": "",
          "type": "string"
        }
      ],
      "stateMutability": "view",
      "type": "function"
    },
    {
      "inputs": [
        {
          "internalType": "address",
          "name": "from",
          "type": "address"
        },
        {
          "internalType": "address",
          "name": "to",
          "type": "address"
        },
        {
          "internalType": "bytes",
          "name": "dataHash",
          "type": "bytes"
        }
      ],
      "name": "transferFrom",
      "outputs": [],
      "stateMutability": "nonpayable",
      "type": "function"
    },
    {
      "inputs": [
        {
          "internalType": "address",
          "name": "newOwner",
          "type": "address"
        }
      ],
      "name": "transferOwnership",
      "outputs": [],
      "stateMutability": "nonpayable",
      "type": "function"
    },
    {
      "inputs": [
        {
          "internalType": "address",
          "name": "to",
          "type": "address"
        },
        {
          "internalType": "bytes",
          "name": "dataHash",
          "type": "bytes"
        }
      ],
      "name": "update",
      "outputs": [],
      "stateMutability": "nonpayable",
      "type": "function"
    },
    {
      "inputs": [
        {
          "internalType": "string",
          "name": "name",
          "type": "string"
        },
        {
          "internalType": "address",
          "name": "to",
          "type": "address"
        }
      ],
      "name": "safeMint",
      "outputs": [],
      "stateMutability": "nonpayable",
      "type": "function"
    },
    {
      "inputs": [
        {
          "internalType": "bytes",
          "name": "tokenId",
          "type": "bytes"
        }
      ],
      "name": "burn",
      "outputs": [],
      "stateMutability": "nonpayable",
      "type": "function"
    },
    {
      "inputs": [
        {
          "internalType": "address",
          "name": "",
          "type": "address"
        },
        {
          "internalType": "address",
          "name": "from",
          "type": "address"
        },
        {
          "internalType": "bytes32",
          "name": "",
          "type": "bytes32"
        },
        {
          "internalType": "bytes",
          "name": "",
          "type": "bytes"
        }
      ],
      "name": "onERCReceived",
      "outputs": [
        {
          "internalType": "bytes4",
          "name": "",
          "type": "bytes4"
        }
      ],
      "stateMutability": "pure",
      "type": "function"
    },
    {
      "inputs": [
        {
          "internalType": "bytes",
          "name": "data",
          "type": "bytes"
        }
      ],
      "name": "decode",
      "outputs": [
        {
          "internalType": "string",
          "name": "name",
          "type": "string"
        },
        {
          "internalType": "address",
          "name": "to",
          "type": "address"
        },
        {
          "internalType": "uint256",
          "name": "_id",
          "type": "uint256"
        },
        {
          "internalType": "uint256",
          "name": "time",
          "type": "uint256"
        }
      ],
      "stateMutability": "pure",
      "type": "function"
    }
  ],
  "bytecode": "0x608060405260006007553480156200001657600080fd5b506040518060400160405280600781526020017f4d79546f6b656e000000000000000000000000000000000000000000000000008152506040518060400160405280600381526020017f4d544b000000000000000000000000000000000000000000000000000000000081525081600090805190602001906200009b929190620001ab565b508060019080519060200190620000b4929190620001ab565b505050620000d7620000cb620000dd60201b60201c565b620000e560201b60201c565b620002c0565b600033905090565b6000600660009054906101000a900473ffffffffffffffffffffffffffffffffffffffff16905081600660006101000a81548173ffffffffffffffffffffffffffffffffffffffff021916908373ffffffffffffffffffffffffffffffffffffffff1602179055508173ffffffffffffffffffffffffffffffffffffffff168173ffffffffffffffffffffffffffffffffffffffff167f8be0079c531659141344cd1fd0a4f28419497f9722a3daafe3b4186f6b6457e060405160405180910390a35050565b828054620001b9906200025b565b90600052602060002090601f016020900481019282620001dd576000855562000229565b82601f10620001f857805160ff191683800117855562000229565b8280016001018555821562000229579182015b82811115620002285782518255916020019190600101906200020b565b5b5090506200023891906200023c565b5090565b5b80821115620002575760008160009055506001016200023d565b5090565b600060028204905060018216806200027457607f821691505b602082108114156200028b576200028a62000291565b5b50919050565b7f4e487b7100000000000000000000000000000000000000000000000000000000600052602260045260246000fd5b61300380620002d06000396000f3fe608060405234801561001057600080fd5b506004361061012c5760003560e01c8063933290d6116100ad578063c6f0577111610071578063c6f057711461032d578063e5c5e9a314610349578063e985e9c51461037c578063f2fde38b146103ac578063fbae110a146103c85761012c565b8063933290d61461027757806395d89b41146102a75780639c2bc6c3146102c5578063a22cb465146102e1578063c10e3b8d146102fd5761012c565b806337c35dcc116100f457806337c35dcc146101d3578063499726631461020357806370a082311461021f578063715018a61461024f5780638da5cb5b146102595761012c565b8063014647f41461013157806301ffc9a71461014d57806302a688ed1461017d57806306fdde03146101995780632a07b6c7146101b7575b600080fd5b61014b60048036038101906101469190611f5b565b6103e4565b005b61016760048036038101906101629190611faf565b6104fc565b60405161017491906128cd565b60405180910390f35b61019760048036038101906101929190611f5b565b610566565b005b6101a1610574565b6040516101ae9190612951565b60405180910390f35b6101d160048036038101906101cc9190612001565b610606565b005b6101ed60048036038101906101e89190611da5565b610657565b6040516101fa91906128e8565b60405180910390f35b61021d60048036038101906102189190611e25565b6106da565b005b61023960048036038101906102349190611d40565b61073a565b6040516102469190612bdf565b60405180910390f35b6102576107f2565b005b61026161087a565b60405161026e919061285f565b60405180910390f35b610291600480360381019061028c9190612046565b6108a4565b60405161029e919061285f565b60405180910390f35b6102af610961565b6040516102bc9190612951565b60405180910390f35b6102df60048036038101906102da9190611e25565b6109f3565b005b6102fb60048036038101906102f69190611f1f565b610a13565b005b61031760048036038101906103129190612046565b610a29565b604051610324919061285f565b60405180910390f35b61034760048036038101906103429190612087565b610ab9565b005b610363600480360381019061035e9190612046565b610b15565b6040516103739493929190612973565b60405180910390f35b61039660048036038101906103919190611d69565b610b47565b6040516103a391906128cd565b60405180910390f35b6103c660048036038101906103c19190611d40565b610bdb565b005b6103e260048036038101906103dd9190611e8c565b610cd3565b005b60006103ef826108a4565b90508073ffffffffffffffffffffffffffffffffffffffff168373ffffffffffffffffffffffffffffffffffffffff161415610460576040517f08c379a000000000000000000000000000000000000000000000000000000000815260040161045790612a1f565b60405180910390fd5b8073ffffffffffffffffffffffffffffffffffffffff1661047f610d35565b73ffffffffffffffffffffffffffffffffffffffff1614806104ae57506104ad816104a8610d35565b610b47565b5b6104ed576040517f08c379a00000000000000000000000000000000000000000000000000000000081526004016104e490612b7f565b60405180910390fd5b6104f78383610d3d565b505050565b60007f01ffc9a7000000000000000000000000000000000000000000000000000000007bffffffffffffffffffffffffffffffffffffffffffffffffffffffff1916827bffffffffffffffffffffffffffffffffffffffffffffffffffffffff1916149050919050565b6105708282610e16565b5050565b60606000805461058390612e2a565b80601f01602080910402602001604051908101604052809291908181526020018280546105af90612e2a565b80156105fc5780601f106105d1576101008083540402835291602001916105fc565b820191906000526020600020905b8154815290600101906020018083116105df57829003601f168201915b5050505050905090565b61065382828080601f016020809104026020016040519081016040528093929190818152602001838380828437600081840152601f19601f82011690508083019250505050505050610f4e565b5050565b60008073ffffffffffffffffffffffffffffffffffffffff168573ffffffffffffffffffffffffffffffffffffffff16146106c7576040517f08c379a00000000000000000000000000000000000000000000000000000000081526004016106be90612bbf565b60405180910390fd5b6382979c1060e01b905095945050505050565b6106eb6106e5610d35565b8261108b565b61072a576040517f08c379a0000000000000000000000000000000000000000000000000000000008152600401610721906129df565b60405180910390fd5b610735838383611169565b505050565b60008073ffffffffffffffffffffffffffffffffffffffff168273ffffffffffffffffffffffffffffffffffffffff1614156107ab576040517f08c379a00000000000000000000000000000000000000000000000000000000081526004016107a290612b9f565b60405180910390fd5b600360008373ffffffffffffffffffffffffffffffffffffffff1673ffffffffffffffffffffffffffffffffffffffff168152602001908152602001600020549050919050565b6107fa610d35565b73ffffffffffffffffffffffffffffffffffffffff1661081861087a565b73ffffffffffffffffffffffffffffffffffffffff161461086e576040517f08c379a000000000000000000000000000000000000000000000000000000000815260040161086590612adf565b60405180910390fd5b61087860006113f0565b565b6000600660009054906101000a900473ffffffffffffffffffffffffffffffffffffffff16905090565b6000806002836040516108b79190612848565b908152602001604051809103902060009054906101000a900473ffffffffffffffffffffffffffffffffffffffff169050600073ffffffffffffffffffffffffffffffffffffffff168173ffffffffffffffffffffffffffffffffffffffff161415610958576040517f08c379a000000000000000000000000000000000000000000000000000000000815260040161094f90612abf565b60405180910390fd5b80915050919050565b60606001805461097090612e2a565b80601f016020809104026020016040519081016040528092919081815260200182805461099c90612e2a565b80156109e95780601f106109be576101008083540402835291602001916109e9565b820191906000526020600020905b8154815290600101906020018083116109cc57829003601f168201915b5050505050905090565b610a0e83838360405180602001604052806000815250610cd3565b505050565b610a25610a1e610d35565b83836114b6565b5050565b6000610a3482611623565b610a73576040517f08c379a0000000000000000000000000000000000000000000000000000000008152600401610a6a90612aff565b60405180910390fd5b600482604051610a839190612848565b908152602001604051809103902060009054906101000a900473ffffffffffffffffffffffffffffffffffffffff169050919050565b60076000815480929190610acc90612e5c565b91905055506000429050600084848460075485604051602001610af3959493929190612903565b6040516020818303038152906040529050610b0e838261169a565b5050505050565b6060600080600084806020019051810190610b3091906120df565b809450819550829650839750505050509193509193565b6000600560008473ffffffffffffffffffffffffffffffffffffffff1673ffffffffffffffffffffffffffffffffffffffff16815260200190815260200160002060008373ffffffffffffffffffffffffffffffffffffffff1673ffffffffffffffffffffffffffffffffffffffff16815260200190815260200160002060009054906101000a900460ff16905092915050565b610be3610d35565b73ffffffffffffffffffffffffffffffffffffffff16610c0161087a565b73ffffffffffffffffffffffffffffffffffffffff1614610c57576040517f08c379a0000000000000000000000000000000000000000000000000000000008152600401610c4e90612adf565b60405180910390fd5b600073ffffffffffffffffffffffffffffffffffffffff168173ffffffffffffffffffffffffffffffffffffffff161415610cc7576040517f08c379a0000000000000000000000000000000000000000000000000000000008152600401610cbe90612a3f565b60405180910390fd5b610cd0816113f0565b50565b610ce4610cde610d35565b8361108b565b610d23576040517f08c379a0000000000000000000000000000000000000000000000000000000008152600401610d1a906129df565b60405180910390fd5b610d2f848484846116b8565b50505050565b600033905090565b81600482604051610d4e9190612848565b908152602001604051809103902060006101000a81548173ffffffffffffffffffffffffffffffffffffffff021916908373ffffffffffffffffffffffffffffffffffffffff16021790555080604051610da89190612848565b60405180910390208273ffffffffffffffffffffffffffffffffffffffff16610dd0836108a4565b73ffffffffffffffffffffffffffffffffffffffff167f3a27e4f17efa944bfb70ff8015dcefce1a87497605352fbb34d8347138216c3060405160405180910390a45050565b600073ffffffffffffffffffffffffffffffffffffffff168273ffffffffffffffffffffffffffffffffffffffff161415610e86576040517f08c379a0000000000000000000000000000000000000000000000000000000008152600401610e7d90612a7f565b60405180910390fd5b610e8f81611623565b610ece576040517f08c379a0000000000000000000000000000000000000000000000000000000008152600401610ec590612a9f565b60405180910390fd5b610ed781610f4e565b610ef1828260405180602001604052806000815250611714565b80604051610eff9190612848565b60405180910390208273ffffffffffffffffffffffffffffffffffffffff167fcbbecdace00991a8a26d8fc6085c610d5474f351252a818795d55a375a84bfa160405160405180910390a35050565b6000610f59826108a4565b9050610f678160008461176f565b610f72600083610d3d565b6001600360008373ffffffffffffffffffffffffffffffffffffffff1673ffffffffffffffffffffffffffffffffffffffff1681526020019081526020016000206000828254610fc29190612d24565b92505081905550600282604051610fd99190612848565b908152602001604051809103902060006101000a81549073ffffffffffffffffffffffffffffffffffffffff0219169055816040516110189190612848565b6040518091039020600073ffffffffffffffffffffffffffffffffffffffff168273ffffffffffffffffffffffffffffffffffffffff167fd7e0e76a339fe8e46c3a779742dd7c08951ec9048bb513b9e5749820fc3a6fb760405160405180910390a461108781600084611774565b5050565b600061109682611623565b6110d5576040517f08c379a00000000000000000000000000000000000000000000000000000000081526004016110cc906129bf565b60405180910390fd5b60006110e0836108a4565b90508073ffffffffffffffffffffffffffffffffffffffff168473ffffffffffffffffffffffffffffffffffffffff16148061112257506111218185610b47565b5b8061116057508373ffffffffffffffffffffffffffffffffffffffff1661114884610a29565b73ffffffffffffffffffffffffffffffffffffffff16145b91505092915050565b8273ffffffffffffffffffffffffffffffffffffffff16611189826108a4565b73ffffffffffffffffffffffffffffffffffffffff16146111df576040517f08c379a00000000000000000000000000000000000000000000000000000000081526004016111d690612b5f565b60405180910390fd5b600073ffffffffffffffffffffffffffffffffffffffff168273ffffffffffffffffffffffffffffffffffffffff16141561124f576040517f08c379a000000000000000000000000000000000000000000000000000000000815260040161124690612b3f565b60405180910390fd5b61125a83838361176f565b611265600082610d3d565b6001600360008573ffffffffffffffffffffffffffffffffffffffff1673ffffffffffffffffffffffffffffffffffffffff16815260200190815260200160002060008282546112b59190612d24565b925050819055506001600360008473ffffffffffffffffffffffffffffffffffffffff1673ffffffffffffffffffffffffffffffffffffffff168152602001908152602001600020600082825461130c9190612cce565b92505081905550816002826040516113249190612848565b908152602001604051809103902060006101000a81548173ffffffffffffffffffffffffffffffffffffffff021916908373ffffffffffffffffffffffffffffffffffffffff1602179055508060405161137e9190612848565b60405180910390208273ffffffffffffffffffffffffffffffffffffffff168473ffffffffffffffffffffffffffffffffffffffff167fd7e0e76a339fe8e46c3a779742dd7c08951ec9048bb513b9e5749820fc3a6fb760405160405180910390a46113eb838383611774565b505050565b6000600660009054906101000a900473ffffffffffffffffffffffffffffffffffffffff16905081600660006101000a81548173ffffffffffffffffffffffffffffffffffffffff021916908373ffffffffffffffffffffffffffffffffffffffff1602179055508173ffffffffffffffffffffffffffffffffffffffff168173ffffffffffffffffffffffffffffffffffffffff167f8be0079c531659141344cd1fd0a4f28419497f9722a3daafe3b4186f6b6457e060405160405180910390a35050565b8173ffffffffffffffffffffffffffffffffffffffff168373ffffffffffffffffffffffffffffffffffffffff161415611525576040517f08c379a000000000000000000000000000000000000000000000000000000000815260040161151c90612a5f565b60405180910390fd5b80600560008573ffffffffffffffffffffffffffffffffffffffff1673ffffffffffffffffffffffffffffffffffffffff16815260200190815260200160002060008473ffffffffffffffffffffffffffffffffffffffff1673ffffffffffffffffffffffffffffffffffffffff16815260200190815260200160002060006101000a81548160ff0219169083151502179055508173ffffffffffffffffffffffffffffffffffffffff168373ffffffffffffffffffffffffffffffffffffffff167f17307eab39ab6107e8899845ad3d59bd9653f200f220920489ca2b5937696c318360405161161691906128cd565b60405180910390a3505050565b60008073ffffffffffffffffffffffffffffffffffffffff1660028360405161164c9190612848565b908152602001604051809103902060009054906101000a900473ffffffffffffffffffffffffffffffffffffffff1673ffffffffffffffffffffffffffffffffffffffff1614159050919050565b6116b4828260405180602001604052806000815250611714565b5050565b6116c3848484611169565b6116cf84848484611779565b61170e576040517f08c379a0000000000000000000000000000000000000000000000000000000008152600401611705906129ff565b60405180910390fd5b50505050565b61171e8383611910565b61172b6000848484611779565b61176a576040517f08c379a0000000000000000000000000000000000000000000000000000000008152600401611761906129ff565b60405180910390fd5b505050565b505050565b505050565b600061179a8473ffffffffffffffffffffffffffffffffffffffff16611b0a565b15611903578373ffffffffffffffffffffffffffffffffffffffff166382979c106117c3610d35565b8786866040518563ffffffff1660e01b81526004016117e5949392919061287a565b602060405180830381600087803b1580156117ff57600080fd5b505af192505050801561183057506040513d601f19601f8201168201806040525081019061182d9190611fd8565b60015b6118b3573d8060008114611860576040519150601f19603f3d011682016040523d82523d6000602084013e611865565b606091505b506000815114156118ab576040517f08c379a00000000000000000000000000000000000000000000000000000000081526004016118a2906129ff565b60405180910390fd5b805181602001fd5b6382979c1060e01b7bffffffffffffffffffffffffffffffffffffffffffffffffffffffff1916817bffffffffffffffffffffffffffffffffffffffffffffffffffffffff191614915050611908565b600190505b949350505050565b600073ffffffffffffffffffffffffffffffffffffffff168273ffffffffffffffffffffffffffffffffffffffff161415611980576040517f08c379a000000000000000000000000000000000000000000000000000000000815260040161197790612a7f565b60405180910390fd5b61198981611623565b156119c9576040517f08c379a00000000000000000000000000000000000000000000000000000000081526004016119c090612b1f565b60405180910390fd5b6119d56000838361176f565b6001600360008473ffffffffffffffffffffffffffffffffffffffff1673ffffffffffffffffffffffffffffffffffffffff1681526020019081526020016000206000828254611a259190612cce565b9250508190555081600282604051611a3d9190612848565b908152602001604051809103902060006101000a81548173ffffffffffffffffffffffffffffffffffffffff021916908373ffffffffffffffffffffffffffffffffffffffff16021790555080604051611a979190612848565b60405180910390208273ffffffffffffffffffffffffffffffffffffffff16600073ffffffffffffffffffffffffffffffffffffffff167fd7e0e76a339fe8e46c3a779742dd7c08951ec9048bb513b9e5749820fc3a6fb760405160405180910390a4611b0660008383611774565b5050565b6000808273ffffffffffffffffffffffffffffffffffffffff16803b806020016040519081016040528181526000908060200190933c51119050919050565b6000611b5c611b5784612c2b565b612bfa565b905082815260208101848484011115611b7457600080fd5b611b7f848285612de8565b509392505050565b6000611b9a611b9584612c5b565b612bfa565b905082815260208101848484011115611bb257600080fd5b611bbd848285612df7565b509392505050565b600081359050611bd481612f43565b92915050565b600081519050611be981612f5a565b92915050565b600081359050611bfe81612f71565b92915050565b600081359050611c1381612f88565b92915050565b600081359050611c2881612f9f565b92915050565b600081519050611c3d81612f9f565b92915050565b60008083601f840112611c5557600080fd5b8235905067ffffffffffffffff811115611c6e57600080fd5b602083019150836001820283011115611c8657600080fd5b9250929050565b600082601f830112611c9e57600080fd5b8135611cae848260208601611b49565b91505092915050565b60008083601f840112611cc957600080fd5b8235905067ffffffffffffffff811115611ce257600080fd5b602083019150836001820283011115611cfa57600080fd5b9250929050565b600082601f830112611d1257600080fd5b8151611d22848260208601611b87565b91505092915050565b600081519050611d3a81612fb6565b92915050565b600060208284031215611d5257600080fd5b6000611d6084828501611bc5565b91505092915050565b60008060408385031215611d7c57600080fd5b6000611d8a85828601611bc5565b9250506020611d9b85828601611bc5565b9150509250929050565b600080600080600060808688031215611dbd57600080fd5b6000611dcb88828901611bc5565b9550506020611ddc88828901611bc5565b9450506040611ded88828901611c04565b935050606086013567ffffffffffffffff811115611e0a57600080fd5b611e1688828901611c43565b92509250509295509295909350565b600080600060608486031215611e3a57600080fd5b6000611e4886828701611bc5565b9350506020611e5986828701611bc5565b925050604084013567ffffffffffffffff811115611e7657600080fd5b611e8286828701611c8d565b9150509250925092565b60008060008060808587031215611ea257600080fd5b6000611eb087828801611bc5565b9450506020611ec187828801611bc5565b935050604085013567ffffffffffffffff811115611ede57600080fd5b611eea87828801611c8d565b925050606085013567ffffffffffffffff811115611f0757600080fd5b611f1387828801611c8d565b91505092959194509250565b60008060408385031215611f3257600080fd5b6000611f4085828601611bc5565b9250506020611f5185828601611bef565b9150509250929050565b60008060408385031215611f6e57600080fd5b6000611f7c85828601611bc5565b925050602083013567ffffffffffffffff811115611f9957600080fd5b611fa585828601611c8d565b9150509250929050565b600060208284031215611fc157600080fd5b6000611fcf84828501611c19565b91505092915050565b600060208284031215611fea57600080fd5b6000611ff884828501611c2e565b91505092915050565b6000806020838503121561201457600080fd5b600083013567ffffffffffffffff81111561202e57600080fd5b61203a85828601611c43565b92509250509250929050565b60006020828403121561205857600080fd5b600082013567ffffffffffffffff81111561207257600080fd5b61207e84828501611c8d565b91505092915050565b60008060006040848603121561209c57600080fd5b600084013567ffffffffffffffff8111156120b657600080fd5b6120c286828701611cb7565b935093505060206120d586828701611bc5565b9150509250925092565b600080600080608085870312156120f557600080fd5b600085015167ffffffffffffffff81111561210f57600080fd5b61211b87828801611d01565b945050602061212c87828801611bda565b935050604061213d87828801611d2b565b925050606061214e87828801611d2b565b91505092959194509250565b61216381612d58565b82525050565b61217281612d7c565b82525050565b61218181612d92565b82525050565b600061219282612c8b565b61219c8185612ca1565b93506121ac818560208601612df7565b6121b581612f32565b840191505092915050565b60006121cb82612c8b565b6121d58185612cb2565b93506121e5818560208601612df7565b80840191505092915050565b60006121fd8385612cbd565b935061220a838584612de8565b61221383612f32565b840190509392505050565b600061222982612c96565b6122338185612cbd565b9350612243818560208601612df7565b61224c81612f32565b840191505092915050565b6000612264602983612cbd565b91507f4552433a206f70657261746f7220717565727920666f72206e6f6e657869737460008301527f656e7420746f6b656e00000000000000000000000000000000000000000000006020830152604082019050919050565b60006122ca602e83612cbd565b91507f4552433a207472616e736665722063616c6c6572206973206e6f74206f776e6560008301527f72206e6f7220617070726f7665640000000000000000000000000000000000006020830152604082019050919050565b6000612330602c83612cbd565b91507f4552433a207472616e7366657220746f206e6f6e20455243526563656976657260008301527f20696d706c656d656e74657200000000000000000000000000000000000000006020830152604082019050919050565b6000612396601e83612cbd565b91507f4552433a20617070726f76616c20746f2063757272656e74206f776e657200006000830152602082019050919050565b60006123d6602683612cbd565b91507f4f776e61626c653a206e6577206f776e657220697320746865207a65726f206160008301527f64647265737300000000000000000000000000000000000000000000000000006020830152604082019050919050565b600061243c601683612cbd565b91507f4552433a20617070726f766520746f2063616c6c6572000000000000000000006000830152602082019050919050565b600061247c601d83612cbd565b91507f4552433a206d696e7420746f20746865207a65726f20616464726573730000006000830152602082019050919050565b60006124bc602083612cbd565b91507f63616e206f6e6c7920757064617465206578697374696e6720746f6b656e73206000830152602082019050919050565b60006124fc602683612cbd565b91507f4552433a206f776e657220717565727920666f72206e6f6e6578697374656e7460008301527f20746f6b656e00000000000000000000000000000000000000000000000000006020830152604082019050919050565b6000612562602083612cbd565b91507f4f776e61626c653a2063616c6c6572206973206e6f7420746865206f776e65726000830152602082019050919050565b60006125a2602983612cbd565b91507f4552433a20617070726f76656420717565727920666f72206e6f6e657869737460008301527f656e7420746f6b656e00000000000000000000000000000000000000000000006020830152604082019050919050565b6000612608601983612cbd565b91507f4552433a20746f6b656e20616c7265616479206d696e746564000000000000006000830152602082019050919050565b6000612648602183612cbd565b91507f4552433a207472616e7366657220746f20746865207a65726f2061646472657360008301527f73000000000000000000000000000000000000000000000000000000000000006020830152604082019050919050565b60006126ae602283612cbd565b91507f4552433a207472616e736665722066726f6d20696e636f7272656374206f776e60008301527f65720000000000000000000000000000000000000000000000000000000000006020830152604082019050919050565b6000612714603583612cbd565b91507f4552433a20617070726f76652063616c6c6572206973206e6f74206f776e657260008301527f206e6f7220617070726f76656420666f7220616c6c00000000000000000000006020830152604082019050919050565b600061277a602683612cbd565b91507f4552433a2061646472657373207a65726f206973206e6f7420612076616c696460008301527f206f776e657200000000000000000000000000000000000000000000000000006020830152604082019050919050565b60006127e0602283612cbd565b91507f43616e6e6f742073656e64206e66747320746f205661756c742064697265637460008301527f6c790000000000000000000000000000000000000000000000000000000000006020830152604082019050919050565b61284281612dde565b82525050565b600061285482846121c0565b915081905092915050565b6000602082019050612874600083018461215a565b92915050565b600060808201905061288f600083018761215a565b61289c602083018661215a565b81810360408301526128ae8185612187565b905081810360608301526128c28184612187565b905095945050505050565b60006020820190506128e26000830184612169565b92915050565b60006020820190506128fd6000830184612178565b92915050565b6000608082019050818103600083015261291e8187896121f1565b905061292d602083018661215a565b61293a6040830185612839565b6129476060830184612839565b9695505050505050565b6000602082019050818103600083015261296b818461221e565b905092915050565b6000608082019050818103600083015261298d818761221e565b905061299c602083018661215a565b6129a96040830185612839565b6129b66060830184612839565b95945050505050565b600060208201905081810360008301526129d881612257565b9050919050565b600060208201905081810360008301526129f8816122bd565b9050919050565b60006020820190508181036000830152612a1881612323565b9050919050565b60006020820190508181036000830152612a3881612389565b9050919050565b60006020820190508181036000830152612a58816123c9565b9050919050565b60006020820190508181036000830152612a788161242f565b9050919050565b60006020820190508181036000830152612a988161246f565b9050919050565b60006020820190508181036000830152612ab8816124af565b9050919050565b60006020820190508181036000830152612ad8816124ef565b9050919050565b60006020820190508181036000830152612af881612555565b9050919050565b60006020820190508181036000830152612b1881612595565b9050919050565b60006020820190508181036000830152612b38816125fb565b9050919050565b60006020820190508181036000830152612b588161263b565b9050919050565b60006020820190508181036000830152612b78816126a1565b9050919050565b60006020820190508181036000830152612b9881612707565b9050919050565b60006020820190508181036000830152612bb88161276d565b9050919050565b60006020820190508181036000830152612bd8816127d3565b9050919050565b6000602082019050612bf46000830184612839565b92915050565b6000604051905081810181811067ffffffffffffffff82111715612c2157612c20612f03565b5b8060405250919050565b600067ffffffffffffffff821115612c4657612c45612f03565b5b601f19601f8301169050602081019050919050565b600067ffffffffffffffff821115612c7657612c75612f03565b5b601f19601f8301169050602081019050919050565b600081519050919050565b600081519050919050565b600082825260208201905092915050565b600081905092915050565b600082825260208201905092915050565b6000612cd982612dde565b9150612ce483612dde565b9250827fffffffffffffffffffffffffffffffffffffffffffffffffffffffffffffffff03821115612d1957612d18612ea5565b5b828201905092915050565b6000612d2f82612dde565b9150612d3a83612dde565b925082821015612d4d57612d4c612ea5565b5b828203905092915050565b6000612d6382612dbe565b9050919050565b6000612d7582612dbe565b9050919050565b60008115159050919050565b6000819050919050565b60007fffffffff0000000000000000000000000000000000000000000000000000000082169050919050565b600073ffffffffffffffffffffffffffffffffffffffff82169050919050565b6000819050919050565b82818337600083830152505050565b60005b83811015612e15578082015181840152602081019050612dfa565b83811115612e24576000848401525b50505050565b60006002820490506001821680612e4257607f821691505b60208210811415612e5657612e55612ed4565b5b50919050565b6000612e6782612dde565b91507fffffffffffffffffffffffffffffffffffffffffffffffffffffffffffffffff821415612e9a57612e99612ea5565b5b600182019050919050565b7f4e487b7100000000000000000000000000000000000000000000000000000000600052601160045260246000fd5b7f4e487b7100000000000000000000000000000000000000000000000000000000600052602260045260246000fd5b7f4e487b7100000000000000000000000000000000000000000000000000000000600052604160045260246000fd5b6000601f19601f8301169050919050565b612f4c81612d58565b8114612f5757600080fd5b50565b612f6381612d6a565b8114612f6e57600080fd5b50565b612f7a81612d7c565b8114612f8557600080fd5b50565b612f9181612d88565b8114612f9c57600080fd5b50565b612fa881612d92565b8114612fb357600080fd5b50565b612fbf81612dde565b8114612fca57600080fd5b5056fea2646970667358221220de0181a41fb4cecf758729018e41c554aa88eb069b80d116ed9a2f4bb8b7a27664736f6c63430008000033",
  "immutableReferences": {},
  "source": "\n// SPDX-License-Identifier: MIT\npragma solidity ^0.8.0;\n\nimport \"./ERC.sol\";\nimport \"./Dependencies/Ownable.sol\";\n\ncontract MyToken is ERC, Ownable {\n    uint id=0;\n\n    event profileCreated(bytes tokenId, address owner, string name, uint time);\n\n    constructor() ERC(\"MyToken\", \"MTK\") {}\n\n    function safeMint(string calldata name, address to ) public  {\n        id++;\n        uint time=block.timestamp;\n        bytes memory newtokenId=(abi.encode(name, to, id, time));\n        _safeMint(to, newtokenId);\n        \n    }\n\n    function burn (bytes calldata tokenId) public {\n        _burn(tokenId);\n    }\n\n\n\n\n    function onERCReceived(\n        address,\n        address from,\n        bytes32,\n        bytes calldata\n    ) external pure returns (bytes4) {\n      require(from == address(0x0), \"Cannot send nfts to Vault directly\");\n      return IERCReceiver.onERCReceived.selector;\n    }\n\n    function decode(bytes memory data) public pure returns (string memory name, address to, uint _id, uint time) {\n        (name, to, _id, time) = abi.decode(data, (string, address, uint, uint));            \n    }\n}",
  "sourcePath": "/Users/fenzyresearch/Downloads/DataToken/contracts/NFT.sol",
  "compiler": {
    "name": "solc",
    "version": "0.8.0+commit.c7dfd78e.Emscripten.clang"
  },
  "schemaVersion": "3.4.6",
  "updatedAt": "2022-05-20T12:19:38.068Z",
  "devdoc": {
    "kind": "dev",
    "methods": {
      "approve(address,bytes)": {
        "details": "See {IERC-approve}."
      },
      "balanceOf(address)": {
        "details": "See {IERC-balanceOf}."
      },
      "getApproved(bytes)": {
        "details": "See {IERC-getApproved}."
      },
      "isApprovedForAll(address,address)": {
        "details": "See {IERC-isApprovedForAll}."
      },
      "name()": {
        "details": "See {IERCMetadata-name}."
      },
      "owner()": {
        "details": "Returns the address of the current owner."
      },
      "ownerOf(bytes)": {
        "details": "See {IERC-ownerOf}."
      },
      "renounceOwnership()": {
        "details": "Leaves the contract without owner. It will not be possible to call `onlyOwner` functions anymore. Can only be called by the current owner. NOTE: Renouncing ownership will leave the contract without an owner, thereby removing any functionality that is only available to the owner."
      },
      "safeTransferFrom(address,address,bytes)": {
        "details": "See {IERC-safeTransferFrom}."
      },
      "safeTransferFrom(address,address,bytes,bytes)": {
        "details": "See {IERC-safeTransferFrom}."
      },
      "setApprovalForAll(address,bool)": {
        "details": "See {IERC-setApprovalForAll}."
      },
      "supportsInterface(bytes4)": {
        "details": "See {IERC165-supportsInterface}."
      },
      "symbol()": {
        "details": "See {IERCMetadata-symbol}."
      },
      "transferFrom(address,address,bytes)": {
        "details": "See {IERC-transferFrom}."
      },
      "transferOwnership(address)": {
        "details": "Transfers ownership of the contract to a new account (`newOwner`). Can only be called by the current owner."
      },
      "update(address,bytes)": {
        "details": "updates the data content of token. Requirements: - `dataHash` must exist."
      }
    },
    "version": 1
  },
  "userdoc": {
    "kind": "user",
    "methods": {},
    "version": 1
  }
}