{
  "contractName": "socialMedia",
  "abi": [
    {
      "inputs": [],
      "stateMutability": "nonpayable",
      "type": "constructor"
    },
    {
      "anonymous": false,
      "inputs": [
        {
          "indexed": true,
          "internalType": "address",
          "name": "owner",
          "type": "address"
        },
        {
          "indexed": true,
          "internalType": "address",
          "name": "approved",
          "type": "address"
        },
        {
          "indexed": true,
          "internalType": "bytes",
          "name": "dataHash",
          "type": "bytes"
        }
      ],
      "name": "Approval",
      "type": "event"
    },
    {
      "anonymous": false,
      "inputs": [
        {
          "indexed": true,
          "internalType": "address",
          "name": "owner",
          "type": "address"
        },
        {
          "indexed": true,
          "internalType": "address",
          "name": "operator",
          "type": "address"
        },
        {
          "indexed": false,
          "internalType": "bool",
          "name": "approved",
          "type": "bool"
        }
      ],
      "name": "ApprovalForAll",
      "type": "event"
    },
    {
      "anonymous": false,
      "inputs": [
        {
          "indexed": true,
          "internalType": "string",
          "name": "bio",
          "type": "string"
        },
        {
          "indexed": true,
          "internalType": "address",
          "name": "owner",
          "type": "address"
        },
        {
          "indexed": false,
          "internalType": "uint256",
          "name": "time",
          "type": "uint256"
        }
      ],
      "name": "BioCreated",
      "type": "event"
    },
    {
      "anonymous": false,
      "inputs": [
        {
          "indexed": true,
          "internalType": "address",
          "name": "previousOwner",
          "type": "address"
        },
        {
          "indexed": true,
          "internalType": "address",
          "name": "newOwner",
          "type": "address"
        }
      ],
      "name": "OwnershipTransferred",
      "type": "event"
    },
    {
      "anonymous": false,
      "inputs": [
        {
          "indexed": true,
          "internalType": "bytes",
          "name": "tokenId",
          "type": "bytes"
        },
        {
          "indexed": true,
          "internalType": "address",
          "name": "owner",
          "type": "address"
        },
        {
          "indexed": true,
          "internalType": "string",
          "name": "name",
          "type": "string"
        },
        {
          "indexed": false,
          "internalType": "uint256",
          "name": "time",
          "type": "uint256"
        }
      ],
      "name": "ProfileUpdated",
      "type": "event"
    },
    {
      "anonymous": false,
      "inputs": [
        {
          "indexed": true,
          "internalType": "address",
          "name": "from",
          "type": "address"
        },
        {
          "indexed": true,
          "internalType": "address",
          "name": "to",
          "type": "address"
        },
        {
          "indexed": true,
          "internalType": "bytes",
          "name": "dataHash",
          "type": "bytes"
        }
      ],
      "name": "Transfer",
      "type": "event"
    },
    {
      "anonymous": false,
      "inputs": [
        {
          "indexed": true,
          "internalType": "address",
          "name": "owner",
          "type": "address"
        },
        {
          "indexed": true,
          "internalType": "bytes",
          "name": "newdataHash",
          "type": "bytes"
        }
      ],
      "name": "Updated",
      "type": "event"
    },
    {
      "anonymous": false,
      "inputs": [
        {
          "indexed": true,
          "internalType": "address",
          "name": "postedBy",
          "type": "address"
        },
        {
          "indexed": true,
          "internalType": "address",
          "name": "commentBy",
          "type": "address"
        },
        {
          "indexed": true,
          "internalType": "string",
          "name": "commentedOn",
          "type": "string"
        },
        {
          "indexed": false,
          "internalType": "string",
          "name": "indexedcomment",
          "type": "string"
        },
        {
          "indexed": false,
          "internalType": "uint256",
          "name": "commentId",
          "type": "uint256"
        },
        {
          "indexed": false,
          "internalType": "uint256",
          "name": "time",
          "type": "uint256"
        }
      ],
      "name": "commented",
      "type": "event"
    },
    {
      "anonymous": false,
      "inputs": [
        {
          "indexed": true,
          "internalType": "address",
          "name": "sender",
          "type": "address"
        },
        {
          "indexed": true,
          "internalType": "string",
          "name": "post",
          "type": "string"
        },
        {
          "indexed": false,
          "internalType": "uint256",
          "name": "time",
          "type": "uint256"
        },
        {
          "indexed": true,
          "internalType": "uint256",
          "name": "postId",
          "type": "uint256"
        }
      ],
      "name": "postCreated",
      "type": "event"
    },
    {
      "anonymous": false,
      "inputs": [
        {
          "indexed": true,
          "internalType": "bytes",
          "name": "tokenId",
          "type": "bytes"
        },
        {
          "indexed": true,
          "internalType": "uint256",
          "name": "index",
          "type": "uint256"
        }
      ],
      "name": "postDeleted",
      "type": "event"
    },
    {
      "anonymous": false,
      "inputs": [
        {
          "indexed": true,
          "internalType": "bytes",
          "name": "tokenId",
          "type": "bytes"
        },
        {
          "indexed": true,
          "internalType": "address",
          "name": "owner",
          "type": "address"
        },
        {
          "indexed": true,
          "internalType": "string",
          "name": "name",
          "type": "string"
        },
        {
          "indexed": false,
          "internalType": "uint256",
          "name": "time",
          "type": "uint256"
        }
      ],
      "name": "profileCreated",
      "type": "event"
    },
    {
      "anonymous": false,
      "inputs": [
        {
          "indexed": true,
          "internalType": "string",
          "name": "Newbio",
          "type": "string"
        },
        {
          "indexed": true,
          "internalType": "address",
          "name": "owner",
          "type": "address"
        },
        {
          "indexed": false,
          "internalType": "uint256",
          "name": "time",
          "type": "uint256"
        }
      ],
      "name": "updateBio",
      "type": "event"
    },
    {
      "inputs": [
        {
          "internalType": "uint256",
          "name": "",
          "type": "uint256"
        }
      ],
      "name": "allComment",
      "outputs": [
        {
          "internalType": "address",
          "name": "Commenter",
          "type": "address"
        },
        {
          "internalType": "uint256",
          "name": "Id",
          "type": "uint256"
        },
        {
          "internalType": "string",
          "name": "comment",
          "type": "string"
        }
      ],
      "stateMutability": "view",
      "type": "function"
    },
    {
      "inputs": [
        {
          "internalType": "uint256",
          "name": "",
          "type": "uint256"
        }
      ],
      "name": "allPost",
      "outputs": [
        {
          "internalType": "address",
          "name": "Poster",
          "type": "address"
        },
        {
          "internalType": "uint256",
          "name": "Id",
          "type": "uint256"
        },
        {
          "internalType": "string",
          "name": "post",
          "type": "string"
        }
      ],
      "stateMutability": "view",
      "type": "function"
    },
    {
      "inputs": [
        {
          "internalType": "address",
          "name": "to",
          "type": "address"
        },
        {
          "internalType": "bytes",
          "name": "dataHash",
          "type": "bytes"
        }
      ],
      "name": "approve",
      "outputs": [],
      "stateMutability": "nonpayable",
      "type": "function"
    },
    {
      "inputs": [
        {
          "internalType": "address",
          "name": "owner",
          "type": "address"
        }
      ],
      "name": "balanceOf",
      "outputs": [
        {
          "internalType": "uint256",
          "name": "",
          "type": "uint256"
        }
      ],
      "stateMutability": "view",
      "type": "function"
    },
    {
      "inputs": [
        {
          "internalType": "bytes",
          "name": "dataHash",
          "type": "bytes"
        }
      ],
      "name": "getApproved",
      "outputs": [
        {
          "internalType": "address",
          "name": "",
          "type": "address"
        }
      ],
      "stateMutability": "view",
      "type": "function"
    },
    {
      "inputs": [
        {
          "internalType": "address",
          "name": "owner",
          "type": "address"
        },
        {
          "internalType": "address",
          "name": "operator",
          "type": "address"
        }
      ],
      "name": "isApprovedForAll",
      "outputs": [
        {
          "internalType": "bool",
          "name": "",
          "type": "bool"
        }
      ],
      "stateMutability": "view",
      "type": "function"
    },
    {
      "inputs": [],
      "name": "name",
      "outputs": [
        {
          "internalType": "string",
          "name": "",
          "type": "string"
        }
      ],
      "stateMutability": "view",
      "type": "function"
    },
    {
      "inputs": [],
      "name": "owner",
      "outputs": [
        {
          "internalType": "address",
          "name": "",
          "type": "address"
        }
      ],
      "stateMutability": "view",
      "type": "function"
    },
    {
      "inputs": [
        {
          "internalType": "bytes",
          "name": "dataHash",
          "type": "bytes"
        }
      ],
      "name": "ownerOf",
      "outputs": [
        {
          "internalType": "address",
          "name": "",
          "type": "address"
        }
      ],
      "stateMutability": "view",
      "type": "function"
    },
    {
      "inputs": [],
      "name": "renounceOwnership",
      "outputs": [],
      "stateMutability": "nonpayable",
      "type": "function"
    },
    {
      "inputs": [
        {
          "internalType": "address",
          "name": "from",
          "type": "address"
        },
        {
          "internalType": "address",
          "name": "to",
          "type": "address"
        },
        {
          "internalType": "bytes",
          "name": "dataHash",
          "type": "bytes"
        }
      ],
      "name": "safeTransferFrom",
      "outputs": [],
      "stateMutability": "nonpayable",
      "type": "function"
    },
    {
      "inputs": [
        {
          "internalType": "address",
          "name": "from",
          "type": "address"
        },
        {
          "internalType": "address",
          "name": "to",
          "type": "address"
        },
        {
          "internalType": "bytes",
          "name": "dataHash",
          "type": "bytes"
        },
        {
          "internalType": "bytes",
          "name": "data",
          "type": "bytes"
        }
      ],
      "name": "safeTransferFrom",
      "outputs": [],
      "stateMutability": "nonpayable",
      "type": "function"
    },
    {
      "inputs": [
        {
          "internalType": "address",
          "name": "operator",
          "type": "address"
        },
        {
          "internalType": "bool",
          "name": "approved",
          "type": "bool"
        }
      ],
      "name": "setApprovalForAll",
      "outputs": [],
      "stateMutability": "nonpayable",
      "type": "function"
    },
    {
      "inputs": [
        {
          "internalType": "bytes4",
          "name": "interfaceId",
          "type": "bytes4"
        }
      ],
      "name": "supportsInterface",
      "outputs": [
        {
          "internalType": "bool",
          "name": "",
          "type": "bool"
        }
      ],
      "stateMutability": "view",
      "type": "function"
    },
    {
      "inputs": [],
      "name": "symbol",
      "outputs": [
        {
          "internalType": "string",
          "name": "",
          "type": "string"
        }
      ],
      "stateMutability": "view",
      "type": "function"
    },
    {
      "inputs": [
        {
          "internalType": "address",
          "name": "from",
          "type": "address"
        },
        {
          "internalType": "address",
          "name": "to",
          "type": "address"
        },
        {
          "internalType": "bytes",
          "name": "dataHash",
          "type": "bytes"
        }
      ],
      "name": "transferFrom",
      "outputs": [],
      "stateMutability": "nonpayable",
      "type": "function"
    },
    {
      "inputs": [
        {
          "internalType": "address",
          "name": "newOwner",
          "type": "address"
        }
      ],
      "name": "transferOwnership",
      "outputs": [],
      "stateMutability": "nonpayable",
      "type": "function"
    },
    {
      "inputs": [
        {
          "internalType": "address",
          "name": "to",
          "type": "address"
        },
        {
          "internalType": "bytes",
          "name": "dataHash",
          "type": "bytes"
        }
      ],
      "name": "update",
      "outputs": [],
      "stateMutability": "nonpayable",
      "type": "function"
    },
    {
      "inputs": [
        {
          "internalType": "string",
          "name": "post",
          "type": "string"
        }
      ],
      "name": "createPost",
      "outputs": [],
      "stateMutability": "nonpayable",
      "type": "function"
    },
    {
      "inputs": [
        {
          "internalType": "uint256",
          "name": "index",
          "type": "uint256"
        },
        {
          "internalType": "string",
          "name": "comment",
          "type": "string"
        }
      ],
      "name": "commentOnPost",
      "outputs": [],
      "stateMutability": "nonpayable",
      "type": "function"
    },
    {
      "inputs": [
        {
          "internalType": "bytes",
          "name": "tokenId",
          "type": "bytes"
        },
        {
          "internalType": "uint256",
          "name": "index",
          "type": "uint256"
        }
      ],
      "name": "deletePost",
      "outputs": [],
      "stateMutability": "nonpayable",
      "type": "function"
    },
    {
      "inputs": [
        {
          "internalType": "bytes",
          "name": "data",
          "type": "bytes"
        }
      ],
      "name": "decodePost",
      "outputs": [
        {
          "internalType": "string",
          "name": "post",
          "type": "string"
        }
      ],
      "stateMutability": "pure",
      "type": "function"
    },
    {
      "inputs": [
        {
          "internalType": "string",
          "name": "name",
          "type": "string"
        },
        {
          "internalType": "address",
          "name": "to",
          "type": "address"
        }
      ],
      "name": "mintAprofile",
      "outputs": [],
      "stateMutability": "nonpayable",
      "type": "function"
    },
    {
      "inputs": [
        {
          "internalType": "bytes",
          "name": "oldTokenId",
          "type": "bytes"
        },
        {
          "internalType": "string",
          "name": "newName",
          "type": "string"
        },
        {
          "internalType": "address",
          "name": "to",
          "type": "address"
        }
      ],
      "name": "UpdateAprofile",
      "outputs": [],
      "stateMutability": "nonpayable",
      "type": "function"
    },
    {
      "inputs": [
        {
          "internalType": "string",
          "name": "bio",
          "type": "string"
        },
        {
          "internalType": "address",
          "name": "to",
          "type": "address"
        }
      ],
      "name": "mintABio",
      "outputs": [],
      "stateMutability": "nonpayable",
      "type": "function"
    },
    {
      "inputs": [
        {
          "internalType": "bytes",
          "name": "oldTokenId",
          "type": "bytes"
        },
        {
          "internalType": "string",
          "name": "newBio",
          "type": "string"
        },
        {
          "internalType": "address",
          "name": "to",
          "type": "address"
        }
      ],
      "name": "UpdateABio",
      "outputs": [],
      "stateMutability": "nonpayable",
      "type": "function"
    },
    {
      "inputs": [
        {
          "internalType": "uint256",
          "name": "index",
          "type": "uint256"
        }
      ],
      "name": "getPost",
      "outputs": [
        {
          "internalType": "address",
          "name": "",
          "type": "address"
        },
        {
          "internalType": "uint256",
          "name": "",
          "type": "uint256"
        },
        {
          "internalType": "string",
          "name": "",
          "type": "string"
        }
      ],
      "stateMutability": "view",
      "type": "function"
    },
    {
      "inputs": [
        {
          "internalType": "uint256",
          "name": "index",
          "type": "uint256"
        }
      ],
      "name": "getcomment",
      "outputs": [
        {
          "internalType": "address",
          "name": "",
          "type": "address"
        },
        {
          "internalType": "uint256",
          "name": "",
          "type": "uint256"
        },
        {
          "internalType": "string",
          "name": "",
          "type": "string"
        }
      ],
      "stateMutability": "view",
      "type": "function"
    },
    {
      "inputs": [],
      "name": "totalPost",
      "outputs": [
        {
          "internalType": "uint256",
          "name": "totalPostsMade",
          "type": "uint256"
        }
      ],
      "stateMutability": "view",
      "type": "function"
    },
    {
      "inputs": [
        {
          "internalType": "address",
          "name": "",
          "type": "address"
        },
        {
          "internalType": "address",
          "name": "from",
          "type": "address"
        },
        {
          "internalType": "bytes",
          "name": "",
          "type": "bytes"
        },
        {
          "internalType": "bytes",
          "name": "",
          "type": "bytes"
        }
      ],
      "name": "onERC721Received",
      "outputs": [
        {
          "internalType": "bytes4",
          "name": "",
          "type": "bytes4"
        }
      ],
      "stateMutability": "pure",
      "type": "function"
    }
  ],
  "bytecode": "0x60806040523480156200001157600080fd5b506040518060400160405280600b81526020017f736f6369616c4d656469610000000000000000000000000000000000000000008152506040518060400160405280600381526020017f534d4100000000000000000000000000000000000000000000000000000000008152506200009e62000092620000d860201b60201c565b620000e060201b60201c565b8160019080519060200190620000b6929190620001a4565b508060029080519060200190620000cf929190620001a4565b505050620002b9565b600033905090565b60008060009054906101000a900473ffffffffffffffffffffffffffffffffffffffff169050816000806101000a81548173ffffffffffffffffffffffffffffffffffffffff021916908373ffffffffffffffffffffffffffffffffffffffff1602179055508173ffffffffffffffffffffffffffffffffffffffff168173ffffffffffffffffffffffffffffffffffffffff167f8be0079c531659141344cd1fd0a4f28419497f9722a3daafe3b4186f6b6457e060405160405180910390a35050565b828054620001b29062000254565b90600052602060002090601f016020900481019282620001d6576000855562000222565b82601f10620001f157805160ff191683800117855562000222565b8280016001018555821562000222579182015b828111156200022157825182559160200191906001019062000204565b5b50905062000231919062000235565b5090565b5b808211156200025057600081600090555060010162000236565b5090565b600060028204905060018216806200026d57607f821691505b602082108114156200028457620002836200028a565b5b50919050565b7f4e487b7100000000000000000000000000000000000000000000000000000000600052602260045260246000fd5b61427580620002c96000396000f3fe608060405234801561001057600080fd5b50600436106101da5760003560e01c80639c2bc6c311610104578063c7303c61116100a2578063efd22aca11610071578063efd22aca14610567578063f0a534ca14610597578063f2fde38b146105c9578063fbae110a146105e5576101da565b8063c7303c61146104cd578063d6b31a1e146104e9578063e83b26d81461051b578063e985e9c514610537576101da565b8063b07e85fc116100de578063b07e85fc1461041f578063bcabfa641461044f578063c10e3b8d14610481578063c31d69ef146104b1576101da565b80639c2bc6c3146103cb578063a22cb465146103e7578063a5cf34ec14610403576101da565b806356a1af201161017c578063715018a61161014b578063715018a6146103555780638da5cb5b1461035f578063933290d61461037d57806395d89b41146103ad576101da565b806356a1af20146102cf57806364732154146102ed5780636b78ba451461030957806370a0823114610325576101da565b806306fdde03116101b857806306fdde031461024757806340731c24146102655780634569dfbc1461029757806349972663146102b3576101da565b8063014647f4146101df57806301ffc9a7146101fb57806302a688ed1461022b575b600080fd5b6101f960048036038101906101f49190612f78565b610601565b005b61021560048036038101906102109190612fcc565b610719565b6040516102229190613b41565b60405180910390f35b61024560048036038101906102409190612f78565b610783565b005b61024f610791565b60405161025c9190613c4e565b60405180910390f35b61027f600480360381019061027a919061321e565b610823565b60405161028e93929190613b03565b60405180910390f35b6102b160048036038101906102ac9190613185565b61093c565b005b6102cd60048036038101906102c89190612e42565b6109f8565b005b6102d7610a58565b6040516102e49190613e90565b60405180910390f35b61030760048036038101906103029190613247565b610a65565b005b610323600480360381019061031e919061301e565b610d2c565b005b61033f600480360381019061033a9190612d42565b610eb7565b60405161034c9190613e90565b60405180910390f35b61035d610f6f565b005b610367610ff7565b6040516103749190613a95565b60405180910390f35b610397600480360381019061039291906130ff565b611020565b6040516103a49190613a95565b60405180910390f35b6103b56110dd565b6040516103c29190613c4e565b60405180910390f35b6103e560048036038101906103e09190612e42565b61116f565b005b61040160048036038101906103fc9190612f3c565b61118f565b005b61041d600480360381019061041891906130a7565b6111a5565b005b61043960048036038101906104349190612da7565b6112c6565b6040516104469190613b5c565b60405180910390f35b6104696004803603810190610464919061321e565b61134a565b60405161047893929190613b03565b60405180910390f35b61049b600480360381019061049691906130ff565b61142c565b6040516104a89190613a95565b60405180910390f35b6104cb60048036038101906104c6919061301e565b6114bc565b005b6104e760048036038101906104e29190613140565b611631565b005b61050360048036038101906104fe919061321e565b6117d4565b60405161051293929190613b03565b60405180910390f35b61053560048036038101906105309190613185565b6118b6565b005b610551600480360381019061054c9190612d6b565b61195c565b60405161055e9190613b41565b60405180910390f35b610581600480360381019061057c91906130ff565b6119f0565b60405161058e9190613c4e565b60405180910390f35b6105b160048036038101906105ac919061321e565b611a0d565b6040516105c093929190613b03565b60405180910390f35b6105e360048036038101906105de9190612d42565b611b26565b005b6105ff60048036038101906105fa9190612ea9565b611c1e565b005b600061060c82611020565b90508073ffffffffffffffffffffffffffffffffffffffff168373ffffffffffffffffffffffffffffffffffffffff16141561067d576040517f08c379a000000000000000000000000000000000000000000000000000000000815260040161067490613cd0565b60405180910390fd5b8073ffffffffffffffffffffffffffffffffffffffff1661069c611c80565b73ffffffffffffffffffffffffffffffffffffffff1614806106cb57506106ca816106c5611c80565b61195c565b5b61070a576040517f08c379a000000000000000000000000000000000000000000000000000000000815260040161070190613e30565b60405180910390fd5b6107148383611c88565b505050565b60007f01ffc9a7000000000000000000000000000000000000000000000000000000007bffffffffffffffffffffffffffffffffffffffffffffffffffffffff1916827bffffffffffffffffffffffffffffffffffffffffffffffffffffffff1916149050919050565b61078d8282611d61565b5050565b6060600180546107a0906140ca565b80601f01602080910402602001604051908101604052809291908181526020018280546107cc906140ca565b80156108195780601f106107ee57610100808354040283529160200191610819565b820191906000526020600020905b8154815290600101906020018083116107fc57829003601f168201915b5050505050905090565b6000806060600060098581548110610864577f4e487b7100000000000000000000000000000000000000000000000000000000600052603260045260246000fd5b906000526020600020906003020190508060000160009054906101000a900473ffffffffffffffffffffffffffffffffffffffff168160010154826002018080546108ae906140ca565b80601f01602080910402602001604051908101604052809291908181526020018280546108da906140ca565b80156109275780601f106108fc57610100808354040283529160200191610927565b820191906000526020600020905b81548152906001019060200180831161090a57829003601f168201915b50505050509050935093509350509193909250565b600042905060008484848460405160200161095a9493929190613bce565b60405160208183030381529060405290506109758382611e99565b8484604051610985929190613a65565b60405180910390208373ffffffffffffffffffffffffffffffffffffffff16826040516109b29190613a4e565b60405180910390207facce4b80e400d50dc8e5352dc2468870e5be195714ad77ab4b329d9aa2b3204c856040516109e99190613e90565b60405180910390a45050505050565b610a09610a03611c80565b82611eb7565b610a48576040517f08c379a0000000000000000000000000000000000000000000000000000000008152600401610a3f90613c90565b60405180910390fd5b610a53838383611f95565b505050565b6000600980549050905090565b6000429050600033905060086000815480929190610a82906140fc565b9190505550600060098681548110610ac3577f4e487b7100000000000000000000000000000000000000000000000000000000600052603260045260246000fd5b906000526020600020906003020190506000816002018054610ae4906140ca565b80601f0160208091040260200160405190810160405280929190818152602001828054610b10906140ca565b8015610b5d5780601f10610b3257610100808354040283529160200191610b5d565b820191906000526020600020905b815481529060010190602001808311610b4057829003601f168201915b5050505050905060008260000160009054906101000a900473ffffffffffffffffffffffffffffffffffffffff169050600a60405180606001604052808673ffffffffffffffffffffffffffffffffffffffff168152602001600854815260200189898080601f016020809104026020016040519081016040528093929190818152602001838380828437600081840152601f19601f82011690508083019250505050505050815250908060018154018082558091505060019003906000526020600020906003020160009091909190915060008201518160000160006101000a81548173ffffffffffffffffffffffffffffffffffffffff021916908373ffffffffffffffffffffffffffffffffffffffff160217905550602082015181600101556040820151816002019080519060200190610c9c929190612a92565b50505081604051610cad9190613a7e565b60405180910390208473ffffffffffffffffffffffffffffffffffffffff168273ffffffffffffffffffffffffffffffffffffffff167f5c38d013ef2f4e9d80d38e0b4c371f8f58e3d12928c5e5013e8c1fcb84253c958a8a6008548b604051610d1a9493929190613c0e565b60405180910390a45050505050505050565b610d34611c80565b73ffffffffffffffffffffffffffffffffffffffff16610d52610ff7565b73ffffffffffffffffffffffffffffffffffffffff1614610da8576040517f08c379a0000000000000000000000000000000000000000000000000000000008152600401610d9f90613d90565b60405180910390fd5b610df585858080601f016020809104026020016040519081016040528093929190818152602001838380828437600081840152601f19601f8201169050808301925050505050505061221c565b60004290506000868686868686604051602001610e1796959493929190613b77565b6040516020818303038152906040529050610e328382611e99565b8484604051610e42929190613a65565b60405180910390208373ffffffffffffffffffffffffffffffffffffffff1682604051610e6f9190613a4e565b60405180910390207f8fba6fa18df774990a4f297788b8baaabdf1bdc8825b3d48870a5b88a2862fb385604051610ea69190613e90565b60405180910390a450505050505050565b60008073ffffffffffffffffffffffffffffffffffffffff168273ffffffffffffffffffffffffffffffffffffffff161415610f28576040517f08c379a0000000000000000000000000000000000000000000000000000000008152600401610f1f90613e50565b60405180910390fd5b600460008373ffffffffffffffffffffffffffffffffffffffff1673ffffffffffffffffffffffffffffffffffffffff168152602001908152602001600020549050919050565b610f77611c80565b73ffffffffffffffffffffffffffffffffffffffff16610f95610ff7565b73ffffffffffffffffffffffffffffffffffffffff1614610feb576040517f08c379a0000000000000000000000000000000000000000000000000000000008152600401610fe290613d90565b60405180910390fd5b610ff56000612359565b565b60008060009054906101000a900473ffffffffffffffffffffffffffffffffffffffff16905090565b6000806003836040516110339190613a4e565b908152602001604051809103902060009054906101000a900473ffffffffffffffffffffffffffffffffffffffff169050600073ffffffffffffffffffffffffffffffffffffffff168173ffffffffffffffffffffffffffffffffffffffff1614156110d4576040517f08c379a00000000000000000000000000000000000000000000000000000000081526004016110cb90613d70565b60405180910390fd5b80915050919050565b6060600280546110ec906140ca565b80601f0160208091040260200160405190810160405280929190818152602001828054611118906140ca565b80156111655780601f1061113a57610100808354040283529160200191611165565b820191906000526020600020905b81548152906001019060200180831161114857829003601f168201915b5050505050905090565b61118a83838360405180602001604052806000815250611c1e565b505050565b6111a161119a611c80565b838361241d565b5050565b6111f283838080601f016020809104026020016040519081016040528093929190818152602001838380828437600081840152601f19601f8201169050808301925050505050505061221c565b6009818154811061122c577f4e487b7100000000000000000000000000000000000000000000000000000000600052603260045260246000fd5b9060005260206000209060030201600080820160006101000a81549073ffffffffffffffffffffffffffffffffffffffff0219169055600182016000905560028201600061127a9190612b18565b505080838360405161128d929190613a35565b60405180910390207f597137f2d3a0fbac4ed453f8dfded8ae75834c33da1c8a256b076947838626d260405160405180910390a3505050565b60008073ffffffffffffffffffffffffffffffffffffffff168673ffffffffffffffffffffffffffffffffffffffff1614611336576040517f08c379a000000000000000000000000000000000000000000000000000000000815260040161132d90613e70565b60405180910390fd5b6382979c1060e01b90509695505050505050565b600a818154811061135a57600080fd5b90600052602060002090600302016000915090508060000160009054906101000a900473ffffffffffffffffffffffffffffffffffffffff16908060010154908060020180546113a9906140ca565b80601f01602080910402602001604051908101604052809291908181526020018280546113d5906140ca565b80156114225780601f106113f757610100808354040283529160200191611422565b820191906000526020600020905b81548152906001019060200180831161140557829003601f168201915b5050505050905083565b60006114378261258a565b611476576040517f08c379a000000000000000000000000000000000000000000000000000000000815260040161146d90613db0565b60405180910390fd5b6005826040516114869190613a4e565b908152602001604051809103902060009054906101000a900473ffffffffffffffffffffffffffffffffffffffff169050919050565b6114c4611c80565b73ffffffffffffffffffffffffffffffffffffffff166114e2610ff7565b73ffffffffffffffffffffffffffffffffffffffff1614611538576040517f08c379a000000000000000000000000000000000000000000000000000000000815260040161152f90613d90565b60405180910390fd5b61158585858080601f016020809104026020016040519081016040528093929190818152602001838380828437600081840152601f19601f8201169050808301925050505050505061221c565b600042905060008686868686866040516020016115a796959493929190613b77565b60405160208183030381529060405290506115c28382611e99565b8273ffffffffffffffffffffffffffffffffffffffff1685856040516115e9929190613a65565b60405180910390207f9ef178656129e42193c27f371aa337717eb8e185d036d867ba14fa6241411b86846040516116209190613e90565b60405180910390a350505050505050565b600042905060003390506007600081548092919061164e906140fc565b9190505550600960405180606001604052808373ffffffffffffffffffffffffffffffffffffffff168152602001600754815260200186868080601f016020809104026020016040519081016040528093929190818152602001838380828437600081840152601f19601f82011690508083019250505050505050815250908060018154018082558091505060019003906000526020600020906003020160009091909190915060008201518160000160006101000a81548173ffffffffffffffffffffffffffffffffffffffff021916908373ffffffffffffffffffffffffffffffffffffffff160217905550602082015181600101556040820151816002019080519060200190611762929190612a92565b5050506007548484604051611778929190613a65565b60405180910390208273ffffffffffffffffffffffffffffffffffffffff167f3e6b82e9e57aeb7bbbfe8d72b8f1a6a0f48c79ebf52b2f5bd7914a8ef936ae62856040516117c69190613e90565b60405180910390a450505050565b600981815481106117e457600080fd5b90600052602060002090600302016000915090508060000160009054906101000a900473ffffffffffffffffffffffffffffffffffffffff1690806001015490806002018054611833906140ca565b80601f016020809104026020016040519081016040528092919081815260200182805461185f906140ca565b80156118ac5780601f10611881576101008083540402835291602001916118ac565b820191906000526020600020905b81548152906001019060200180831161188f57829003601f168201915b5050505050905083565b60004290506000848484846040516020016118d49493929190613bce565b60405160208183030381529060405290506118ef8382611e99565b8273ffffffffffffffffffffffffffffffffffffffff168585604051611916929190613a65565b60405180910390207f4d67989e7a6a8a401e4b3313fc96428cd6f2db89581993fd93039de6d0b4c5ba8460405161194d9190613e90565b60405180910390a35050505050565b6000600660008473ffffffffffffffffffffffffffffffffffffffff1673ffffffffffffffffffffffffffffffffffffffff16815260200190815260200160002060008373ffffffffffffffffffffffffffffffffffffffff1673ffffffffffffffffffffffffffffffffffffffff16815260200190815260200160002060009054906101000a900460ff16905092915050565b606081806020019051810190611a0691906131dd565b9050919050565b60008060606000600a8581548110611a4e577f4e487b7100000000000000000000000000000000000000000000000000000000600052603260045260246000fd5b906000526020600020906003020190508060000160009054906101000a900473ffffffffffffffffffffffffffffffffffffffff16816001015482600201808054611a98906140ca565b80601f0160208091040260200160405190810160405280929190818152602001828054611ac4906140ca565b8015611b115780601f10611ae657610100808354040283529160200191611b11565b820191906000526020600020905b815481529060010190602001808311611af457829003601f168201915b50505050509050935093509350509193909250565b611b2e611c80565b73ffffffffffffffffffffffffffffffffffffffff16611b4c610ff7565b73ffffffffffffffffffffffffffffffffffffffff1614611ba2576040517f08c379a0000000000000000000000000000000000000000000000000000000008152600401611b9990613d90565b60405180910390fd5b600073ffffffffffffffffffffffffffffffffffffffff168173ffffffffffffffffffffffffffffffffffffffff161415611c12576040517f08c379a0000000000000000000000000000000000000000000000000000000008152600401611c0990613cf0565b60405180910390fd5b611c1b81612359565b50565b611c2f611c29611c80565b83611eb7565b611c6e576040517f08c379a0000000000000000000000000000000000000000000000000000000008152600401611c6590613c90565b60405180910390fd5b611c7a84848484612601565b50505050565b600033905090565b81600582604051611c999190613a4e565b908152602001604051809103902060006101000a81548173ffffffffffffffffffffffffffffffffffffffff021916908373ffffffffffffffffffffffffffffffffffffffff16021790555080604051611cf39190613a4e565b60405180910390208273ffffffffffffffffffffffffffffffffffffffff16611d1b83611020565b73ffffffffffffffffffffffffffffffffffffffff167f3a27e4f17efa944bfb70ff8015dcefce1a87497605352fbb34d8347138216c3060405160405180910390a45050565b600073ffffffffffffffffffffffffffffffffffffffff168273ffffffffffffffffffffffffffffffffffffffff161415611dd1576040517f08c379a0000000000000000000000000000000000000000000000000000000008152600401611dc890613d30565b60405180910390fd5b611dda8161258a565b611e19576040517f08c379a0000000000000000000000000000000000000000000000000000000008152600401611e1090613d50565b60405180910390fd5b611e228161221c565b611e3c82826040518060200160405280600081525061265d565b80604051611e4a9190613a4e565b60405180910390208273ffffffffffffffffffffffffffffffffffffffff167fcbbecdace00991a8a26d8fc6085c610d5474f351252a818795d55a375a84bfa160405160405180910390a35050565b611eb382826040518060200160405280600081525061265d565b5050565b6000611ec28261258a565b611f01576040517f08c379a0000000000000000000000000000000000000000000000000000000008152600401611ef890613c70565b60405180910390fd5b6000611f0c83611020565b90508073ffffffffffffffffffffffffffffffffffffffff168473ffffffffffffffffffffffffffffffffffffffff161480611f4e5750611f4d818561195c565b5b80611f8c57508373ffffffffffffffffffffffffffffffffffffffff16611f748461142c565b73ffffffffffffffffffffffffffffffffffffffff16145b91505092915050565b8273ffffffffffffffffffffffffffffffffffffffff16611fb582611020565b73ffffffffffffffffffffffffffffffffffffffff161461200b576040517f08c379a000000000000000000000000000000000000000000000000000000000815260040161200290613e10565b60405180910390fd5b600073ffffffffffffffffffffffffffffffffffffffff168273ffffffffffffffffffffffffffffffffffffffff16141561207b576040517f08c379a000000000000000000000000000000000000000000000000000000000815260040161207290613df0565b60405180910390fd5b6120868383836126b8565b612091600082611c88565b6001600460008573ffffffffffffffffffffffffffffffffffffffff1673ffffffffffffffffffffffffffffffffffffffff16815260200190815260200160002060008282546120e19190613fe0565b925050819055506001600460008473ffffffffffffffffffffffffffffffffffffffff1673ffffffffffffffffffffffffffffffffffffffff16815260200190815260200160002060008282546121389190613f8a565b92505081905550816003826040516121509190613a4e565b908152602001604051809103902060006101000a81548173ffffffffffffffffffffffffffffffffffffffff021916908373ffffffffffffffffffffffffffffffffffffffff160217905550806040516121aa9190613a4e565b60405180910390208273ffffffffffffffffffffffffffffffffffffffff168473ffffffffffffffffffffffffffffffffffffffff167fd7e0e76a339fe8e46c3a779742dd7c08951ec9048bb513b9e5749820fc3a6fb760405160405180910390a46122178383836126bd565b505050565b600061222782611020565b9050612235816000846126b8565b612240600083611c88565b6001600460008373ffffffffffffffffffffffffffffffffffffffff1673ffffffffffffffffffffffffffffffffffffffff16815260200190815260200160002060008282546122909190613fe0565b925050819055506003826040516122a79190613a4e565b908152602001604051809103902060006101000a81549073ffffffffffffffffffffffffffffffffffffffff0219169055816040516122e69190613a4e565b6040518091039020600073ffffffffffffffffffffffffffffffffffffffff168273ffffffffffffffffffffffffffffffffffffffff167fd7e0e76a339fe8e46c3a779742dd7c08951ec9048bb513b9e5749820fc3a6fb760405160405180910390a4612355816000846126bd565b5050565b60008060009054906101000a900473ffffffffffffffffffffffffffffffffffffffff169050816000806101000a81548173ffffffffffffffffffffffffffffffffffffffff021916908373ffffffffffffffffffffffffffffffffffffffff1602179055508173ffffffffffffffffffffffffffffffffffffffff168173ffffffffffffffffffffffffffffffffffffffff167f8be0079c531659141344cd1fd0a4f28419497f9722a3daafe3b4186f6b6457e060405160405180910390a35050565b8173ffffffffffffffffffffffffffffffffffffffff168373ffffffffffffffffffffffffffffffffffffffff16141561248c576040517f08c379a000000000000000000000000000000000000000000000000000000000815260040161248390613d10565b60405180910390fd5b80600660008573ffffffffffffffffffffffffffffffffffffffff1673ffffffffffffffffffffffffffffffffffffffff16815260200190815260200160002060008473ffffffffffffffffffffffffffffffffffffffff1673ffffffffffffffffffffffffffffffffffffffff16815260200190815260200160002060006101000a81548160ff0219169083151502179055508173ffffffffffffffffffffffffffffffffffffffff168373ffffffffffffffffffffffffffffffffffffffff167f17307eab39ab6107e8899845ad3d59bd9653f200f220920489ca2b5937696c318360405161257d9190613b41565b60405180910390a3505050565b60008073ffffffffffffffffffffffffffffffffffffffff166003836040516125b39190613a4e565b908152602001604051809103902060009054906101000a900473ffffffffffffffffffffffffffffffffffffffff1673ffffffffffffffffffffffffffffffffffffffff1614159050919050565b61260c848484611f95565b612618848484846126c2565b612657576040517f08c379a000000000000000000000000000000000000000000000000000000000815260040161264e90613cb0565b60405180910390fd5b50505050565b6126678383612859565b61267460008484846126c2565b6126b3576040517f08c379a00000000000000000000000000000000000000000000000000000000081526004016126aa90613cb0565b60405180910390fd5b505050565b505050565b505050565b60006126e38473ffffffffffffffffffffffffffffffffffffffff16612a53565b1561284c578373ffffffffffffffffffffffffffffffffffffffff166382979c1061270c611c80565b8786866040518563ffffffff1660e01b815260040161272e9493929190613ab0565b602060405180830381600087803b15801561274857600080fd5b505af192505050801561277957506040513d601f19601f820116820180604052508101906127769190612ff5565b60015b6127fc573d80600081146127a9576040519150601f19603f3d011682016040523d82523d6000602084013e6127ae565b606091505b506000815114156127f4576040517f08c379a00000000000000000000000000000000000000000000000000000000081526004016127eb90613cb0565b60405180910390fd5b805181602001fd5b6382979c1060e01b7bffffffffffffffffffffffffffffffffffffffffffffffffffffffff1916817bffffffffffffffffffffffffffffffffffffffffffffffffffffffff191614915050612851565b600190505b949350505050565b600073ffffffffffffffffffffffffffffffffffffffff168273ffffffffffffffffffffffffffffffffffffffff1614156128c9576040517f08c379a00000000000000000000000000000000000000000000000000000000081526004016128c090613d30565b60405180910390fd5b6128d28161258a565b15612912576040517f08c379a000000000000000000000000000000000000000000000000000000000815260040161290990613dd0565b60405180910390fd5b61291e600083836126b8565b6001600460008473ffffffffffffffffffffffffffffffffffffffff1673ffffffffffffffffffffffffffffffffffffffff168152602001908152602001600020600082825461296e9190613f8a565b92505081905550816003826040516129869190613a4e565b908152602001604051809103902060006101000a81548173ffffffffffffffffffffffffffffffffffffffff021916908373ffffffffffffffffffffffffffffffffffffffff160217905550806040516129e09190613a4e565b60405180910390208273ffffffffffffffffffffffffffffffffffffffff16600073ffffffffffffffffffffffffffffffffffffffff167fd7e0e76a339fe8e46c3a779742dd7c08951ec9048bb513b9e5749820fc3a6fb760405160405180910390a4612a4f600083836126bd565b5050565b6000808273ffffffffffffffffffffffffffffffffffffffff16803b806020016040519081016040528181526000908060200190933c51119050919050565b828054612a9e906140ca565b90600052602060002090601f016020900481019282612ac05760008555612b07565b82601f10612ad957805160ff1916838001178555612b07565b82800160010185558215612b07579182015b82811115612b06578251825591602001919060010190612aeb565b5b509050612b149190612b58565b5090565b508054612b24906140ca565b6000825580601f10612b365750612b55565b601f016020900490600052602060002090810190612b549190612b58565b5b50565b5b80821115612b71576000816000905550600101612b59565b5090565b6000612b88612b8384613edc565b613eab565b905082815260208101848484011115612ba057600080fd5b612bab848285614088565b509392505050565b6000612bc6612bc184613f0c565b613eab565b905082815260208101848484011115612bde57600080fd5b612be9848285614097565b509392505050565b600081359050612c00816141e3565b92915050565b600081359050612c15816141fa565b92915050565b600081359050612c2a81614211565b92915050565b600081519050612c3f81614211565b92915050565b60008083601f840112612c5757600080fd5b8235905067ffffffffffffffff811115612c7057600080fd5b602083019150836001820283011115612c8857600080fd5b9250929050565b600082601f830112612ca057600080fd5b8135612cb0848260208601612b75565b91505092915050565b60008083601f840112612ccb57600080fd5b8235905067ffffffffffffffff811115612ce457600080fd5b602083019150836001820283011115612cfc57600080fd5b9250929050565b600082601f830112612d1457600080fd5b8151612d24848260208601612bb3565b91505092915050565b600081359050612d3c81614228565b92915050565b600060208284031215612d5457600080fd5b6000612d6284828501612bf1565b91505092915050565b60008060408385031215612d7e57600080fd5b6000612d8c85828601612bf1565b9250506020612d9d85828601612bf1565b9150509250929050565b60008060008060008060808789031215612dc057600080fd5b6000612dce89828a01612bf1565b9650506020612ddf89828a01612bf1565b955050604087013567ffffffffffffffff811115612dfc57600080fd5b612e0889828a01612c45565b9450945050606087013567ffffffffffffffff811115612e2757600080fd5b612e3389828a01612c45565b92509250509295509295509295565b600080600060608486031215612e5757600080fd5b6000612e6586828701612bf1565b9350506020612e7686828701612bf1565b925050604084013567ffffffffffffffff811115612e9357600080fd5b612e9f86828701612c8f565b9150509250925092565b60008060008060808587031215612ebf57600080fd5b6000612ecd87828801612bf1565b9450506020612ede87828801612bf1565b935050604085013567ffffffffffffffff811115612efb57600080fd5b612f0787828801612c8f565b925050606085013567ffffffffffffffff811115612f2457600080fd5b612f3087828801612c8f565b91505092959194509250565b60008060408385031215612f4f57600080fd5b6000612f5d85828601612bf1565b9250506020612f6e85828601612c06565b9150509250929050565b60008060408385031215612f8b57600080fd5b6000612f9985828601612bf1565b925050602083013567ffffffffffffffff811115612fb657600080fd5b612fc285828601612c8f565b9150509250929050565b600060208284031215612fde57600080fd5b6000612fec84828501612c1b565b91505092915050565b60006020828403121561300757600080fd5b600061301584828501612c30565b91505092915050565b60008060008060006060868803121561303657600080fd5b600086013567ffffffffffffffff81111561305057600080fd5b61305c88828901612c45565b9550955050602086013567ffffffffffffffff81111561307b57600080fd5b61308788828901612cb9565b9350935050604061309a88828901612bf1565b9150509295509295909350565b6000806000604084860312156130bc57600080fd5b600084013567ffffffffffffffff8111156130d657600080fd5b6130e286828701612c45565b935093505060206130f586828701612d2d565b9150509250925092565b60006020828403121561311157600080fd5b600082013567ffffffffffffffff81111561312b57600080fd5b61313784828501612c8f565b91505092915050565b6000806020838503121561315357600080fd5b600083013567ffffffffffffffff81111561316d57600080fd5b61317985828601612cb9565b92509250509250929050565b60008060006040848603121561319a57600080fd5b600084013567ffffffffffffffff8111156131b457600080fd5b6131c086828701612cb9565b935093505060206131d386828701612bf1565b9150509250925092565b6000602082840312156131ef57600080fd5b600082015167ffffffffffffffff81111561320957600080fd5b61321584828501612d03565b91505092915050565b60006020828403121561323057600080fd5b600061323e84828501612d2d565b91505092915050565b60008060006040848603121561325c57600080fd5b600061326a86828701612d2d565b935050602084013567ffffffffffffffff81111561328757600080fd5b61329386828701612cb9565b92509250509250925092565b6132a881614014565b82525050565b6132b781614026565b82525050565b6132c681614032565b82525050565b60006132d88385613f52565b93506132e5838584614088565b6132ee836141d2565b840190509392505050565b60006133058385613f63565b9350613312838584614088565b82840190509392505050565b600061332982613f3c565b6133338185613f52565b9350613343818560208601614097565b61334c816141d2565b840191505092915050565b600061336282613f3c565b61336c8185613f63565b935061337c818560208601614097565b80840191505092915050565b60006133948385613f6e565b93506133a1838584614088565b6133aa836141d2565b840190509392505050565b60006133c18385613f7f565b93506133ce838584614088565b82840190509392505050565b60006133e582613f47565b6133ef8185613f6e565b93506133ff818560208601614097565b613408816141d2565b840191505092915050565b600061341e82613f47565b6134288185613f7f565b9350613438818560208601614097565b80840191505092915050565b6000613451602983613f6e565b91507f4552433a206f70657261746f7220717565727920666f72206e6f6e657869737460008301527f656e7420746f6b656e00000000000000000000000000000000000000000000006020830152604082019050919050565b60006134b7602e83613f6e565b91507f4552433a207472616e736665722063616c6c6572206973206e6f74206f776e6560008301527f72206e6f7220617070726f7665640000000000000000000000000000000000006020830152604082019050919050565b600061351d602c83613f6e565b91507f4552433a207472616e7366657220746f206e6f6e20455243526563656976657260008301527f20696d706c656d656e74657200000000000000000000000000000000000000006020830152604082019050919050565b6000613583601e83613f6e565b91507f4552433a20617070726f76616c20746f2063757272656e74206f776e657200006000830152602082019050919050565b60006135c3602683613f6e565b91507f4f776e61626c653a206e6577206f776e657220697320746865207a65726f206160008301527f64647265737300000000000000000000000000000000000000000000000000006020830152604082019050919050565b6000613629601683613f6e565b91507f4552433a20617070726f766520746f2063616c6c6572000000000000000000006000830152602082019050919050565b6000613669601d83613f6e565b91507f4552433a206d696e7420746f20746865207a65726f20616464726573730000006000830152602082019050919050565b60006136a9602083613f6e565b91507f63616e206f6e6c7920757064617465206578697374696e6720746f6b656e73206000830152602082019050919050565b60006136e9602683613f6e565b91507f4552433a206f776e657220717565727920666f72206e6f6e6578697374656e7460008301527f20746f6b656e00000000000000000000000000000000000000000000000000006020830152604082019050919050565b600061374f602083613f6e565b91507f4f776e61626c653a2063616c6c6572206973206e6f7420746865206f776e65726000830152602082019050919050565b600061378f602983613f6e565b91507f4552433a20617070726f76656420717565727920666f72206e6f6e657869737460008301527f656e7420746f6b656e00000000000000000000000000000000000000000000006020830152604082019050919050565b60006137f5601983613f6e565b91507f4552433a20746f6b656e20616c7265616479206d696e746564000000000000006000830152602082019050919050565b6000613835602183613f6e565b91507f4552433a207472616e7366657220746f20746865207a65726f2061646472657360008301527f73000000000000000000000000000000000000000000000000000000000000006020830152604082019050919050565b600061389b602283613f6e565b91507f4552433a207472616e736665722066726f6d20696e636f7272656374206f776e60008301527f65720000000000000000000000000000000000000000000000000000000000006020830152604082019050919050565b6000613901603583613f6e565b91507f4552433a20617070726f76652063616c6c6572206973206e6f74206f776e657260008301527f206e6f7220617070726f76656420666f7220616c6c00000000000000000000006020830152604082019050919050565b6000613967602683613f6e565b91507f4552433a2061646472657373207a65726f206973206e6f7420612076616c696460008301527f206f776e657200000000000000000000000000000000000000000000000000006020830152604082019050919050565b60006139cd602283613f6e565b91507f43616e6e6f742073656e64206e66747320746f205661756c742064697265637460008301527f6c790000000000000000000000000000000000000000000000000000000000006020830152604082019050919050565b613a2f8161407e565b82525050565b6000613a428284866132f9565b91508190509392505050565b6000613a5a8284613357565b915081905092915050565b6000613a728284866133b5565b91508190509392505050565b6000613a8a8284613413565b915081905092915050565b6000602082019050613aaa600083018461329f565b92915050565b6000608082019050613ac5600083018761329f565b613ad2602083018661329f565b8181036040830152613ae4818561331e565b90508181036060830152613af8818461331e565b905095945050505050565b6000606082019050613b18600083018661329f565b613b256020830185613a26565b8181036040830152613b3781846133da565b9050949350505050565b6000602082019050613b5660008301846132ae565b92915050565b6000602082019050613b7160008301846132bd565b92915050565b60006080820190508181036000830152613b9281888a6132cc565b90508181036020830152613ba7818688613388565b9050613bb6604083018561329f565b613bc36060830184613a26565b979650505050505050565b60006060820190508181036000830152613be9818688613388565b9050613bf8602083018561329f565b613c056040830184613a26565b95945050505050565b60006060820190508181036000830152613c29818688613388565b9050613c386020830185613a26565b613c456040830184613a26565b95945050505050565b60006020820190508181036000830152613c6881846133da565b905092915050565b60006020820190508181036000830152613c8981613444565b9050919050565b60006020820190508181036000830152613ca9816134aa565b9050919050565b60006020820190508181036000830152613cc981613510565b9050919050565b60006020820190508181036000830152613ce981613576565b9050919050565b60006020820190508181036000830152613d09816135b6565b9050919050565b60006020820190508181036000830152613d298161361c565b9050919050565b60006020820190508181036000830152613d498161365c565b9050919050565b60006020820190508181036000830152613d698161369c565b9050919050565b60006020820190508181036000830152613d89816136dc565b9050919050565b60006020820190508181036000830152613da981613742565b9050919050565b60006020820190508181036000830152613dc981613782565b9050919050565b60006020820190508181036000830152613de9816137e8565b9050919050565b60006020820190508181036000830152613e0981613828565b9050919050565b60006020820190508181036000830152613e298161388e565b9050919050565b60006020820190508181036000830152613e49816138f4565b9050919050565b60006020820190508181036000830152613e698161395a565b9050919050565b60006020820190508181036000830152613e89816139c0565b9050919050565b6000602082019050613ea56000830184613a26565b92915050565b6000604051905081810181811067ffffffffffffffff82111715613ed257613ed16141a3565b5b8060405250919050565b600067ffffffffffffffff821115613ef757613ef66141a3565b5b601f19601f8301169050602081019050919050565b600067ffffffffffffffff821115613f2757613f266141a3565b5b601f19601f8301169050602081019050919050565b600081519050919050565b600081519050919050565b600082825260208201905092915050565b600081905092915050565b600082825260208201905092915050565b600081905092915050565b6000613f958261407e565b9150613fa08361407e565b9250827fffffffffffffffffffffffffffffffffffffffffffffffffffffffffffffffff03821115613fd557613fd4614145565b5b828201905092915050565b6000613feb8261407e565b9150613ff68361407e565b92508282101561400957614008614145565b5b828203905092915050565b600061401f8261405e565b9050919050565b60008115159050919050565b60007fffffffff0000000000000000000000000000000000000000000000000000000082169050919050565b600073ffffffffffffffffffffffffffffffffffffffff82169050919050565b6000819050919050565b82818337600083830152505050565b60005b838110156140b557808201518184015260208101905061409a565b838111156140c4576000848401525b50505050565b600060028204905060018216806140e257607f821691505b602082108114156140f6576140f5614174565b5b50919050565b60006141078261407e565b91507fffffffffffffffffffffffffffffffffffffffffffffffffffffffffffffffff82141561413a57614139614145565b5b600182019050919050565b7f4e487b7100000000000000000000000000000000000000000000000000000000600052601160045260246000fd5b7f4e487b7100000000000000000000000000000000000000000000000000000000600052602260045260246000fd5b7f4e487b7100000000000000000000000000000000000000000000000000000000600052604160045260246000fd5b6000601f19601f8301169050919050565b6141ec81614014565b81146141f757600080fd5b50565b61420381614026565b811461420e57600080fd5b50565b61421a81614032565b811461422557600080fd5b50565b6142318161407e565b811461423c57600080fd5b5056fea2646970667358221220b1328c416850868c4e3b153e469866d05a282b9437874905246c86bd2d48a4e764736f6c63430008000033",
  "immutableReferences": {},
  "source": "pragma solidity 0.8.0;\nimport \"./interfaces/IERCReceiver.sol\";\nimport \"./ERC.sol\";\nimport \"./Dependencies/Ownable.sol\";\n\n\n\ncontract socialMedia is Ownable, ERC{\n\n    uint postId;\n    uint commentId;\n\n    struct POSTS{\n        address Poster;\n        uint Id;\n        string post;\n    }\n\n    struct COMMENTS{\n        address Commenter;\n        uint Id;\n        string comment;\n    }\n\n    POSTS [] public allPost;\n    COMMENTS [] public allComment;\n\n    constructor ()ERC(\"socialMedia\", \"SMA\"){\n        \n    }\n    \n    event profileCreated(bytes indexed tokenId, address indexed owner, string indexed name, uint time);\n    event ProfileUpdated(bytes indexed tokenId, address indexed owner, string indexed name, uint time);\n    event BioCreated(string indexed bio, address indexed owner, uint time );\n    event updateBio(string indexed Newbio, address indexed owner, uint time );\n    event postCreated (address indexed sender, string indexed post, uint256 time, uint indexed postId);\n    event postDeleted(bytes indexed tokenId, uint indexed index);\n    event commented(address indexed postedBy, address indexed commentBy, string indexed commentedOn, string indexedcomment, uint commentId, uint time);\n    \n\n    function createPost(string calldata post) external{\n        uint time=block.timestamp;\n        address sender=msg.sender;\n        //bytes memory Post=abi.encode(post);\n        postId++;\n        allPost.push(POSTS(sender,postId, post));\n        emit postCreated (sender, post, time, postId);   \n\n    }\n\n    /*function createPost(string calldata post) external {\n        postId++;\n        address to=msg.sender;\n        bytes memory newtokenId=(abi.encode(post));\n        _safeMint(to, newtokenId);\n        allPost.push(POSTS(postId, newtokenId));\n    }*/\n\n    function commentOnPost(uint index, string calldata comment)public{\n        uint time=block.timestamp;\n        address commentBy=msg.sender;\n        commentId++;\n        POSTS storage _post=allPost[index];\n        string memory commentedOn= _post.post;\n        address postedBy= _post.Poster;\n        allComment.push(COMMENTS(commentBy, commentId, comment));\n        emit commented(postedBy, commentBy, commentedOn, comment, commentId, time);\n        \n\n    }\n\n    function deletePost(bytes calldata tokenId, uint index)external{\n        _burn(tokenId);\n        delete allPost[index];\n        emit postDeleted(tokenId, index);\n    }\n\n    function decodePost(bytes memory data) public pure returns (string memory post) {\n        (post) = abi.decode(data, (string));            \n    }\n\n\n    function mintAprofile(string calldata name, address to)public{\n        uint time=block.timestamp;\n        bytes memory tokenId=(abi.encode(name, to,  time));\n        _safeMint(to, tokenId);\n        emit profileCreated(tokenId, to, name, time);\n        \n\n    }\n\n    function UpdateAprofile(bytes calldata oldTokenId, string calldata newName, address to) onlyOwner public{\n        _burn(oldTokenId);\n        uint time=block.timestamp;\n        bytes memory newTokenId=(abi.encode(oldTokenId, newName, to, time));\n        _safeMint(to, newTokenId );\n        emit ProfileUpdated(newTokenId, to, newName, time);\n    }\n\n    function mintABio(string calldata bio, address to) public{\n        uint time=block.timestamp;\n        bytes memory tokenId=(abi.encode(bio, to, time));\n        _safeMint(to, tokenId);\n        emit BioCreated( bio, to, time ); \n    }\n\n    function UpdateABio(bytes calldata oldTokenId, string calldata newBio, address to) onlyOwner public{\n       _burn(oldTokenId);\n        uint time=block.timestamp;\n        bytes memory newTokenId=(abi.encode(oldTokenId, newBio, to, time));\n        _safeMint(to, newTokenId );\n        emit updateBio( newBio, to,  time );\n    }\n\n    function getPost(uint index) public view returns (address, uint, string memory) {\n        POSTS storage _post=allPost[index];\n        return (_post.Poster, _post.Id, _post.post);\n    }\n\n    function getcomment(uint index) public view returns (address, uint, string memory) {\n        COMMENTS storage _comment=allComment[index];\n        return (_comment.Commenter, _comment.Id, _comment.comment);\n    }\n\n    \n    function totalPost()public view returns (uint totalPostsMade){\n        return allPost.length;\n    }\n\n\n    function onERC721Received(\n        address,\n        address from,\n        bytes calldata,\n        bytes calldata\n    ) external pure returns (bytes4) {\n      require(from == address(0x0), \"Cannot send nfts to Vault directly\");\n      return IERCReceiver.onERCReceived.selector;\n    }\n    \n\n\n\n}",
  "sourcePath": "/Users/fenzyresearch/Downloads/DataToken/contracts/Socials.sol",
  "compiler": {
    "name": "solc",
    "version": "0.8.0+commit.c7dfd78e.Emscripten.clang"
  },
  "schemaVersion": "3.4.6",
  "updatedAt": "2022-05-22T02:55:46.344Z",
  "devdoc": {
    "kind": "dev",
    "methods": {
      "approve(address,bytes)": {
        "details": "See {IERC-approve}."
      },
      "balanceOf(address)": {
        "details": "See {IERC-balanceOf}."
      },
      "getApproved(bytes)": {
        "details": "See {IERC-getApproved}."
      },
      "isApprovedForAll(address,address)": {
        "details": "See {IERC-isApprovedForAll}."
      },
      "name()": {
        "details": "See {IERCMetadata-name}."
      },
      "owner()": {
        "details": "Returns the address of the current owner."
      },
      "ownerOf(bytes)": {
        "details": "See {IERC-ownerOf}."
      },
      "renounceOwnership()": {
        "details": "Leaves the contract without owner. It will not be possible to call `onlyOwner` functions anymore. Can only be called by the current owner. NOTE: Renouncing ownership will leave the contract without an owner, thereby removing any functionality that is only available to the owner."
      },
      "safeTransferFrom(address,address,bytes)": {
        "details": "See {IERC-safeTransferFrom}."
      },
      "safeTransferFrom(address,address,bytes,bytes)": {
        "details": "See {IERC-safeTransferFrom}."
      },
      "setApprovalForAll(address,bool)": {
        "details": "See {IERC-setApprovalForAll}."
      },
      "supportsInterface(bytes4)": {
        "details": "See {IERC165-supportsInterface}."
      },
      "symbol()": {
        "details": "See {IERCMetadata-symbol}."
      },
      "transferFrom(address,address,bytes)": {
        "details": "See {IERC-transferFrom}."
      },
      "transferOwnership(address)": {
        "details": "Transfers ownership of the contract to a new account (`newOwner`). Can only be called by the current owner."
      },
      "update(address,bytes)": {
        "details": "updates the data content of token. Requirements: - `dataHash` must exist."
      }
    },
    "version": 1
  },
  "userdoc": {
    "kind": "user",
    "methods": {},
    "version": 1
  }
}