{
  "contractName": "socialMedia",
  "abi": [
    {
      "inputs": [
        {
          "internalType": "contract INFT",
          "name": "_Profile",
          "type": "address"
        }
      ],
      "stateMutability": "nonpayable",
      "type": "constructor"
    },
    {
      "anonymous": false,
      "inputs": [
        {
          "indexed": false,
          "internalType": "string",
          "name": "bio",
          "type": "string"
        },
        {
          "indexed": false,
          "internalType": "address",
          "name": "owner",
          "type": "address"
        },
        {
          "indexed": false,
          "internalType": "uint256",
          "name": "time",
          "type": "uint256"
        }
      ],
      "name": "BioCreated",
      "type": "event"
    },
    {
      "anonymous": false,
      "inputs": [
        {
          "indexed": true,
          "internalType": "address",
          "name": "previousOwner",
          "type": "address"
        },
        {
          "indexed": true,
          "internalType": "address",
          "name": "newOwner",
          "type": "address"
        }
      ],
      "name": "OwnershipTransferred",
      "type": "event"
    },
    {
      "anonymous": false,
      "inputs": [
        {
          "indexed": false,
          "internalType": "bytes",
          "name": "tokenId",
          "type": "bytes"
        },
        {
          "indexed": false,
          "internalType": "address",
          "name": "owner",
          "type": "address"
        },
        {
          "indexed": false,
          "internalType": "string",
          "name": "name",
          "type": "string"
        },
        {
          "indexed": false,
          "internalType": "uint256",
          "name": "time",
          "type": "uint256"
        }
      ],
      "name": "ProfileUpdated",
      "type": "event"
    },
    {
      "anonymous": false,
      "inputs": [
        {
          "indexed": false,
          "internalType": "uint256",
          "name": "index",
          "type": "uint256"
        },
        {
          "indexed": false,
          "internalType": "bytes",
          "name": "post",
          "type": "bytes"
        }
      ],
      "name": "commented",
      "type": "event"
    },
    {
      "anonymous": false,
      "inputs": [
        {
          "indexed": false,
          "internalType": "address",
          "name": "sender",
          "type": "address"
        },
        {
          "indexed": false,
          "internalType": "bytes",
          "name": "post",
          "type": "bytes"
        },
        {
          "indexed": false,
          "internalType": "uint256",
          "name": "time",
          "type": "uint256"
        },
        {
          "indexed": false,
          "internalType": "uint256",
          "name": "postId",
          "type": "uint256"
        }
      ],
      "name": "postCreated",
      "type": "event"
    },
    {
      "anonymous": false,
      "inputs": [],
      "name": "postDeleted",
      "type": "event"
    },
    {
      "anonymous": false,
      "inputs": [
        {
          "indexed": false,
          "internalType": "bytes",
          "name": "tokenId",
          "type": "bytes"
        },
        {
          "indexed": false,
          "internalType": "address",
          "name": "owner",
          "type": "address"
        },
        {
          "indexed": false,
          "internalType": "string",
          "name": "name",
          "type": "string"
        },
        {
          "indexed": false,
          "internalType": "uint256",
          "name": "time",
          "type": "uint256"
        }
      ],
      "name": "profileCreated",
      "type": "event"
    },
    {
      "anonymous": false,
      "inputs": [
        {
          "indexed": false,
          "internalType": "string",
          "name": "Newbio",
          "type": "string"
        },
        {
          "indexed": false,
          "internalType": "address",
          "name": "owner",
          "type": "address"
        },
        {
          "indexed": false,
          "internalType": "uint256",
          "name": "time",
          "type": "uint256"
        }
      ],
      "name": "updateBio",
      "type": "event"
    },
    {
      "inputs": [],
      "name": "Profile",
      "outputs": [
        {
          "internalType": "contract INFT",
          "name": "",
          "type": "address"
        }
      ],
      "stateMutability": "view",
      "type": "function"
    },
    {
      "inputs": [
        {
          "internalType": "uint256",
          "name": "",
          "type": "uint256"
        }
      ],
      "name": "allPost",
      "outputs": [
        {
          "internalType": "uint256",
          "name": "id",
          "type": "uint256"
        },
        {
          "internalType": "bytes",
          "name": "post",
          "type": "bytes"
        }
      ],
      "stateMutability": "view",
      "type": "function"
    },
    {
      "inputs": [],
      "name": "owner",
      "outputs": [
        {
          "internalType": "address",
          "name": "",
          "type": "address"
        }
      ],
      "stateMutability": "view",
      "type": "function"
    },
    {
      "inputs": [],
      "name": "renounceOwnership",
      "outputs": [],
      "stateMutability": "nonpayable",
      "type": "function"
    },
    {
      "inputs": [
        {
          "internalType": "address",
          "name": "newOwner",
          "type": "address"
        }
      ],
      "name": "transferOwnership",
      "outputs": [],
      "stateMutability": "nonpayable",
      "type": "function"
    },
    {
      "inputs": [
        {
          "internalType": "string",
          "name": "post",
          "type": "string"
        }
      ],
      "name": "createPost",
      "outputs": [
        {
          "internalType": "bytes",
          "name": "",
          "type": "bytes"
        }
      ],
      "stateMutability": "nonpayable",
      "type": "function"
    },
    {
      "inputs": [
        {
          "internalType": "bytes",
          "name": "tokenId",
          "type": "bytes"
        },
        {
          "internalType": "uint256",
          "name": "index",
          "type": "uint256"
        }
      ],
      "name": "deletePost",
      "outputs": [],
      "stateMutability": "nonpayable",
      "type": "function"
    },
    {
      "inputs": [
        {
          "internalType": "bytes",
          "name": "data",
          "type": "bytes"
        }
      ],
      "name": "decodePost",
      "outputs": [
        {
          "internalType": "string",
          "name": "post",
          "type": "string"
        }
      ],
      "stateMutability": "pure",
      "type": "function"
    },
    {
      "inputs": [
        {
          "internalType": "string",
          "name": "name",
          "type": "string"
        },
        {
          "internalType": "address",
          "name": "to",
          "type": "address"
        }
      ],
      "name": "mintAprofile",
      "outputs": [],
      "stateMutability": "nonpayable",
      "type": "function"
    },
    {
      "inputs": [
        {
          "internalType": "bytes",
          "name": "oldTokenId",
          "type": "bytes"
        },
        {
          "internalType": "string",
          "name": "Newname",
          "type": "string"
        },
        {
          "internalType": "address",
          "name": "to",
          "type": "address"
        }
      ],
      "name": "UpdateAprofile",
      "outputs": [],
      "stateMutability": "nonpayable",
      "type": "function"
    },
    {
      "inputs": [
        {
          "internalType": "string",
          "name": "bio",
          "type": "string"
        },
        {
          "internalType": "address",
          "name": "to",
          "type": "address"
        }
      ],
      "name": "mintABio",
      "outputs": [],
      "stateMutability": "nonpayable",
      "type": "function"
    },
    {
      "inputs": [
        {
          "internalType": "bytes",
          "name": "oldTokenId",
          "type": "bytes"
        },
        {
          "internalType": "string",
          "name": "NewBio",
          "type": "string"
        },
        {
          "internalType": "address",
          "name": "to",
          "type": "address"
        }
      ],
      "name": "UpdateABio",
      "outputs": [],
      "stateMutability": "nonpayable",
      "type": "function"
    },
    {
      "inputs": [
        {
          "internalType": "uint256",
          "name": "index",
          "type": "uint256"
        }
      ],
      "name": "getPost",
      "outputs": [
        {
          "internalType": "uint256",
          "name": "",
          "type": "uint256"
        },
        {
          "internalType": "bytes",
          "name": "",
          "type": "bytes"
        }
      ],
      "stateMutability": "view",
      "type": "function"
    },
    {
      "inputs": [],
      "name": "totalPost",
      "outputs": [
        {
          "internalType": "uint256",
          "name": "totalPostsMade",
          "type": "uint256"
        }
      ],
      "stateMutability": "view",
      "type": "function"
    },
    {
      "inputs": [
        {
          "internalType": "address",
          "name": "",
          "type": "address"
        },
        {
          "internalType": "address",
          "name": "from",
          "type": "address"
        },
        {
          "internalType": "bytes",
          "name": "",
          "type": "bytes"
        },
        {
          "internalType": "bytes",
          "name": "",
          "type": "bytes"
        }
      ],
      "name": "onERCReceived",
      "outputs": [
        {
          "internalType": "bytes4",
          "name": "",
          "type": "bytes4"
        }
      ],
      "stateMutability": "pure",
      "type": "function"
    }
  ],
  "bytecode": "0x60a06040523480156200001157600080fd5b5060405162001ded38038062001ded833981810160405281019062000037919062000178565b620000576200004b6200009560201b60201c565b6200009d60201b60201c565b8073ffffffffffffffffffffffffffffffffffffffff1660808173ffffffffffffffffffffffffffffffffffffffff1660601b815250505062000206565b600033905090565b60008060009054906101000a900473ffffffffffffffffffffffffffffffffffffffff169050816000806101000a81548173ffffffffffffffffffffffffffffffffffffffff021916908373ffffffffffffffffffffffffffffffffffffffff1602179055508173ffffffffffffffffffffffffffffffffffffffff168173ffffffffffffffffffffffffffffffffffffffff167f8be0079c531659141344cd1fd0a4f28419497f9722a3daafe3b4186f6b6457e060405160405180910390a35050565b6000815190506200017281620001ec565b92915050565b6000602082840312156200018b57600080fd5b60006200019b8482850162000161565b91505092915050565b6000620001b182620001cc565b9050919050565b6000620001c582620001a4565b9050919050565b600073ffffffffffffffffffffffffffffffffffffffff82169050919050565b620001f781620001b8565b81146200020357600080fd5b50565b60805160601c611b9762000256600039600081816103e901528181610506015281816105930152818161075e015281816108d40152818161096101528181610bf60152610cc80152611b976000f3fe608060405234801561001057600080fd5b50600436106100f55760003560e01c8063a5cf34ec11610097578063e83b26d811610066578063e83b26d814610272578063eaee72361461028e578063efd22aca146102ac578063f2fde38b146102dc576100f5565b8063a5cf34ec146101d9578063c31d69ef146101f5578063c7303c6114610211578063d6b31a1e14610241576100f5565b80636b78ba45116100d35780636b78ba4514610165578063715018a61461018157806382979c101461018b5780638da5cb5b146101bb576100f5565b806340731c24146100fa5780634569dfbc1461012b57806356a1af2014610147575b600080fd5b610114600480360381019061010f9190611400565b6102f8565b604051610122929190611853565b60405180910390f35b61014560048036038101906101409190611367565b6103e7565b005b61014f61047b565b60405161015c9190611838565b60405180910390f35b61017f600480360381019061017a9190611200565b610488565b005b610189610627565b005b6101a560048036038101906101a09190611165565b6106af565b6040516101b291906116a4565b60405180910390f35b6101c3610733565b6040516101d0919061163d565b60405180910390f35b6101f360048036038101906101ee9190611289565b61075c565b005b61020f600480360381019061020a9190611200565b610851565b005b61022b60048036038101906102269190611322565b610a33565b60405161023891906116e3565b60405180910390f35b61025b60048036038101906102569190611400565b610b33565b604051610269929190611853565b60405180910390f35b61028c60048036038101906102879190611367565b610bef565b005b610296610cc6565b6040516102a39190611705565b60405180910390f35b6102c660048036038101906102c191906112e1565b610cea565b6040516102d391906117b6565b60405180910390f35b6102f660048036038101906102f1919061113c565b610d07565b005b60006060600060028481548110610338577f4e487b7100000000000000000000000000000000000000000000000000000000600052603260045260246000fd5b9060005260206000209060020201905080600001548160010180805461035d90611a1a565b80601f016020809104026020016040519081016040528092919081815260200182805461038990611a1a565b80156103d65780601f106103ab576101008083540402835291602001916103d6565b820191906000526020600020905b8154815290600101906020018083116103b957829003601f168201915b505050505090509250925050915091565b7f000000000000000000000000000000000000000000000000000000000000000073ffffffffffffffffffffffffffffffffffffffff1663c6f057718484846040518463ffffffff1660e01b815260040161044493929190611744565b600060405180830381600087803b15801561045e57600080fd5b505af1158015610472573d6000803e3d6000fd5b50505050505050565b6000600280549050905090565b610490610dff565b73ffffffffffffffffffffffffffffffffffffffff166104ae610733565b73ffffffffffffffffffffffffffffffffffffffff1614610504576040517f08c379a00000000000000000000000000000000000000000000000000000000081526004016104fb906117f8565b60405180910390fd5b7f000000000000000000000000000000000000000000000000000000000000000073ffffffffffffffffffffffffffffffffffffffff16632a07b6c786866040518363ffffffff1660e01b815260040161055f9291906116bf565b600060405180830381600087803b15801561057957600080fd5b505af115801561058d573d6000803e3d6000fd5b505050507f000000000000000000000000000000000000000000000000000000000000000073ffffffffffffffffffffffffffffffffffffffff1663c6f057718484846040518463ffffffff1660e01b81526004016105ee93929190611744565b600060405180830381600087803b15801561060857600080fd5b505af115801561061c573d6000803e3d6000fd5b505050505050505050565b61062f610dff565b73ffffffffffffffffffffffffffffffffffffffff1661064d610733565b73ffffffffffffffffffffffffffffffffffffffff16146106a3576040517f08c379a000000000000000000000000000000000000000000000000000000000815260040161069a906117f8565b60405180910390fd5b6106ad6000610e07565b565b60008073ffffffffffffffffffffffffffffffffffffffff168673ffffffffffffffffffffffffffffffffffffffff161461071f576040517f08c379a000000000000000000000000000000000000000000000000000000000815260040161071690611818565b60405180910390fd5b6382979c1060e01b90509695505050505050565b60008060009054906101000a900473ffffffffffffffffffffffffffffffffffffffff16905090565b7f000000000000000000000000000000000000000000000000000000000000000073ffffffffffffffffffffffffffffffffffffffff16632a07b6c784846040518363ffffffff1660e01b81526004016107b79291906116bf565b600060405180830381600087803b1580156107d157600080fd5b505af11580156107e5573d6000803e3d6000fd5b5050505060028181548110610823577f4e487b7100000000000000000000000000000000000000000000000000000000600052603260045260246000fd5b906000526020600020906002020160008082016000905560018201600061084a9190610ecb565b5050505050565b610859610dff565b73ffffffffffffffffffffffffffffffffffffffff16610877610733565b73ffffffffffffffffffffffffffffffffffffffff16146108cd576040517f08c379a00000000000000000000000000000000000000000000000000000000081526004016108c4906117f8565b60405180910390fd5b60004290507f000000000000000000000000000000000000000000000000000000000000000073ffffffffffffffffffffffffffffffffffffffff16632a07b6c787876040518363ffffffff1660e01b815260040161092d9291906116bf565b600060405180830381600087803b15801561094757600080fd5b505af115801561095b573d6000803e3d6000fd5b505050507f000000000000000000000000000000000000000000000000000000000000000073ffffffffffffffffffffffffffffffffffffffff1663c6f057718585856040518463ffffffff1660e01b81526004016109bc93929190611744565b600060405180830381600087803b1580156109d657600080fd5b505af11580156109ea573d6000803e3d6000fd5b505050507f9ef178656129e42193c27f371aa337717eb8e185d036d867ba14fa6241411b8684848484604051610a239493929190611776565b60405180910390a1505050505050565b60606000429050600033905060008585604051602001610a54929190611720565b604051602081830303815290604052905060016000815480929190610a7890611a4c565b9190505550600260405180604001604052806001548152602001838152509080600181540180825580915050600190039060005260206000209060020201600090919091909150600082015181600001556020820151816001019080519060200190610ae5929190610f0b565b5050507f400efffba089d8d71e2764c23b8cf55f83f47b797937fd58fccd624d99b8ef98828285600154604051610b1f9493929190611658565b60405180910390a180935050505092915050565b60028181548110610b4357600080fd5b9060005260206000209060020201600091509050806000015490806001018054610b6c90611a1a565b80601f0160208091040260200160405190810160405280929190818152602001828054610b9890611a1a565b8015610be55780601f10610bba57610100808354040283529160200191610be5565b820191906000526020600020905b815481529060010190602001808311610bc857829003601f168201915b5050505050905082565b60004290507f000000000000000000000000000000000000000000000000000000000000000073ffffffffffffffffffffffffffffffffffffffff1663c6f057718585856040518463ffffffff1660e01b8152600401610c5193929190611744565b600060405180830381600087803b158015610c6b57600080fd5b505af1158015610c7f573d6000803e3d6000fd5b505050507f4d67989e7a6a8a401e4b3313fc96428cd6f2db89581993fd93039de6d0b4c5ba84848484604051610cb89493929190611776565b60405180910390a150505050565b7f000000000000000000000000000000000000000000000000000000000000000081565b606081806020019051810190610d0091906113bf565b9050919050565b610d0f610dff565b73ffffffffffffffffffffffffffffffffffffffff16610d2d610733565b73ffffffffffffffffffffffffffffffffffffffff1614610d83576040517f08c379a0000000000000000000000000000000000000000000000000000000008152600401610d7a906117f8565b60405180910390fd5b600073ffffffffffffffffffffffffffffffffffffffff168173ffffffffffffffffffffffffffffffffffffffff161415610df3576040517f08c379a0000000000000000000000000000000000000000000000000000000008152600401610dea906117d8565b60405180910390fd5b610dfc81610e07565b50565b600033905090565b60008060009054906101000a900473ffffffffffffffffffffffffffffffffffffffff169050816000806101000a81548173ffffffffffffffffffffffffffffffffffffffff021916908373ffffffffffffffffffffffffffffffffffffffff1602179055508173ffffffffffffffffffffffffffffffffffffffff168173ffffffffffffffffffffffffffffffffffffffff167f8be0079c531659141344cd1fd0a4f28419497f9722a3daafe3b4186f6b6457e060405160405180910390a35050565b508054610ed790611a1a565b6000825580601f10610ee95750610f08565b601f016020900490600052602060002090810190610f079190610f91565b5b50565b828054610f1790611a1a565b90600052602060002090601f016020900481019282610f395760008555610f80565b82601f10610f5257805160ff1916838001178555610f80565b82800160010185558215610f80579182015b82811115610f7f578251825591602001919060010190610f64565b5b509050610f8d9190610f91565b5090565b5b80821115610faa576000816000905550600101610f92565b5090565b6000610fc1610fbc846118b4565b611883565b905082815260208101848484011115610fd957600080fd5b610fe48482856119d8565b509392505050565b6000610fff610ffa846118e4565b611883565b90508281526020810184848401111561101757600080fd5b6110228482856119e7565b509392505050565b60008135905061103981611b33565b92915050565b60008083601f84011261105157600080fd5b8235905067ffffffffffffffff81111561106a57600080fd5b60208301915083600182028301111561108257600080fd5b9250929050565b600082601f83011261109a57600080fd5b81356110aa848260208601610fae565b91505092915050565b60008083601f8401126110c557600080fd5b8235905067ffffffffffffffff8111156110de57600080fd5b6020830191508360018202830111156110f657600080fd5b9250929050565b600082601f83011261110e57600080fd5b815161111e848260208601610fec565b91505092915050565b60008135905061113681611b4a565b92915050565b60006020828403121561114e57600080fd5b600061115c8482850161102a565b91505092915050565b6000806000806000806080878903121561117e57600080fd5b600061118c89828a0161102a565b965050602061119d89828a0161102a565b955050604087013567ffffffffffffffff8111156111ba57600080fd5b6111c689828a0161103f565b9450945050606087013567ffffffffffffffff8111156111e557600080fd5b6111f189828a0161103f565b92509250509295509295509295565b60008060008060006060868803121561121857600080fd5b600086013567ffffffffffffffff81111561123257600080fd5b61123e8882890161103f565b9550955050602086013567ffffffffffffffff81111561125d57600080fd5b611269888289016110b3565b9350935050604061127c8882890161102a565b9150509295509295909350565b60008060006040848603121561129e57600080fd5b600084013567ffffffffffffffff8111156112b857600080fd5b6112c48682870161103f565b935093505060206112d786828701611127565b9150509250925092565b6000602082840312156112f357600080fd5b600082013567ffffffffffffffff81111561130d57600080fd5b61131984828501611089565b91505092915050565b6000806020838503121561133557600080fd5b600083013567ffffffffffffffff81111561134f57600080fd5b61135b858286016110b3565b92509250509250929050565b60008060006040848603121561137c57600080fd5b600084013567ffffffffffffffff81111561139657600080fd5b6113a2868287016110b3565b935093505060206113b58682870161102a565b9150509250925092565b6000602082840312156113d157600080fd5b600082015167ffffffffffffffff8111156113eb57600080fd5b6113f7848285016110fd565b91505092915050565b60006020828403121561141257600080fd5b600061142084828501611127565b91505092915050565b6114328161194c565b82525050565b6114418161195e565b82525050565b6000611453838561192a565b93506114608385846119d8565b61146983611b22565b840190509392505050565b600061147f82611914565b611489818561192a565b93506114998185602086016119e7565b6114a281611b22565b840191505092915050565b6114b6816119b4565b82525050565b60006114c8838561193b565b93506114d58385846119d8565b6114de83611b22565b840190509392505050565b60006114f48261191f565b6114fe818561193b565b935061150e8185602086016119e7565b61151781611b22565b840191505092915050565b600061152f60268361193b565b91507f4f776e61626c653a206e6577206f776e657220697320746865207a65726f206160008301527f64647265737300000000000000000000000000000000000000000000000000006020830152604082019050919050565b600061159560208361193b565b91507f4f776e61626c653a2063616c6c6572206973206e6f7420746865206f776e65726000830152602082019050919050565b60006115d560228361193b565b91507f43616e6e6f742073656e64206e66747320746f205661756c742064697265637460008301527f6c790000000000000000000000000000000000000000000000000000000000006020830152604082019050919050565b611637816119aa565b82525050565b60006020820190506116526000830184611429565b92915050565b600060808201905061166d6000830187611429565b818103602083015261167f8186611474565b905061168e604083018561162e565b61169b606083018461162e565b95945050505050565b60006020820190506116b96000830184611438565b92915050565b600060208201905081810360008301526116da818486611447565b90509392505050565b600060208201905081810360008301526116fd8184611474565b905092915050565b600060208201905061171a60008301846114ad565b92915050565b6000602082019050818103600083015261173b8184866114bc565b90509392505050565b6000604082019050818103600083015261175f8185876114bc565b905061176e6020830184611429565b949350505050565b600060608201905081810360008301526117918186886114bc565b90506117a06020830185611429565b6117ad604083018461162e565b95945050505050565b600060208201905081810360008301526117d081846114e9565b905092915050565b600060208201905081810360008301526117f181611522565b9050919050565b6000602082019050818103600083015261181181611588565b9050919050565b60006020820190508181036000830152611831816115c8565b9050919050565b600060208201905061184d600083018461162e565b92915050565b6000604082019050611868600083018561162e565b818103602083015261187a8184611474565b90509392505050565b6000604051905081810181811067ffffffffffffffff821117156118aa576118a9611af3565b5b8060405250919050565b600067ffffffffffffffff8211156118cf576118ce611af3565b5b601f19601f8301169050602081019050919050565b600067ffffffffffffffff8211156118ff576118fe611af3565b5b601f19601f8301169050602081019050919050565b600081519050919050565b600081519050919050565b600082825260208201905092915050565b600082825260208201905092915050565b60006119578261198a565b9050919050565b60007fffffffff0000000000000000000000000000000000000000000000000000000082169050919050565b600073ffffffffffffffffffffffffffffffffffffffff82169050919050565b6000819050919050565b60006119bf826119c6565b9050919050565b60006119d18261198a565b9050919050565b82818337600083830152505050565b60005b83811015611a055780820151818401526020810190506119ea565b83811115611a14576000848401525b50505050565b60006002820490506001821680611a3257607f821691505b60208210811415611a4657611a45611ac4565b5b50919050565b6000611a57826119aa565b91507fffffffffffffffffffffffffffffffffffffffffffffffffffffffffffffffff821415611a8a57611a89611a95565b5b600182019050919050565b7f4e487b7100000000000000000000000000000000000000000000000000000000600052601160045260246000fd5b7f4e487b7100000000000000000000000000000000000000000000000000000000600052602260045260246000fd5b7f4e487b7100000000000000000000000000000000000000000000000000000000600052604160045260246000fd5b6000601f19601f8301169050919050565b611b3c8161194c565b8114611b4757600080fd5b50565b611b53816119aa565b8114611b5e57600080fd5b5056fea264697066735822122044db2295ca542cf5e546c4041db762d70f1ded83c10b22f6bf7b4fe61b60806364736f6c63430008000033",
  "immutableReferences": {
    "1681": [
      {
        "length": 32,
        "start": 1001
      },
      {
        "length": 32,
        "start": 1286
      },
      {
        "length": 32,
        "start": 1427
      },
      {
        "length": 32,
        "start": 1886
      },
      {
        "length": 32,
        "start": 2260
      },
      {
        "length": 32,
        "start": 2401
      },
      {
        "length": 32,
        "start": 3062
      },
      {
        "length": 32,
        "start": 3272
      }
    ]
  },
  "source": "pragma solidity 0.8.0;\nimport \"./interfaces/INFT.sol\";\nimport \"./interfaces/IERCReceiver.sol\";\nimport \"./Dependencies/Ownable.sol\";\n\n\n\ncontract socialMedia is Ownable{\n\n    INFT public immutable  Profile;\n    uint postId;\n\n    struct POSTS{\n        uint id;\n        bytes post;\n    }\n\n    POSTS [] public allPost;\n\n    constructor (INFT _Profile){\n        Profile=_Profile;\n    }\n    \n    event profileCreated(bytes tokenId, address owner, string name, uint time);\n    event ProfileUpdated(bytes tokenId, address owner, string name, uint time);\n    event BioCreated(string bio, address owner, uint time );\n    event updateBio(string Newbio, address owner, uint time );\n    event postCreated (address sender, bytes post, uint256 time, uint postId);\n    event commented(uint index, bytes post);\n    event postDeleted();\n    \n\n    function createPost(string calldata post) external returns (bytes memory){\n        uint time=block.timestamp;\n        address sender=msg.sender;\n        bytes memory Post=abi.encode(post);\n        postId++;\n        allPost.push(POSTS(postId, Post));\n        emit postCreated (sender, Post, time, postId);\n        return Post;\n         \n        \n\n    }\n\n    \n\n\n\n    function deletePost(bytes calldata tokenId, uint index)external{\n        Profile.burn(tokenId);\n        delete allPost[index];\n    }\n\n    function decodePost(bytes memory data) public pure returns (string memory post) {\n        (post) = abi.decode(data, (string));            \n    }\n\n\n    function mintAprofile(string calldata name, address to)public{\n        Profile.safeMint(name, to);\n\n    }\n\n    function UpdateAprofile(bytes calldata oldTokenId, string calldata Newname, address to) onlyOwner public{\n        Profile.burn(oldTokenId);\n        Profile.safeMint(Newname, to);\n    }\n\n    function mintABio(string calldata bio, address to) public{\n        uint time=block.timestamp;\n        Profile.safeMint(bio, to);\n        emit BioCreated( bio, to, time ); \n    }\n\n    function UpdateABio(bytes calldata oldTokenId, string calldata NewBio, address to) onlyOwner public{\n       uint time=block.timestamp;\n        Profile.burn(oldTokenId);\n        Profile.safeMint(NewBio, to);\n        emit updateBio( NewBio, to,  time );\n    }\n\n    function getPost(uint index) public view returns (uint, bytes memory) {\n        POSTS storage _post=allPost[index];\n        return (_post.id, _post.post);\n    }\n\n    \n    function totalPost()public view returns (uint totalPostsMade){\n        return allPost.length;\n    }\n\n\n    function onERCReceived(\n        address,\n        address from,\n        bytes calldata,\n        bytes calldata\n    ) external pure returns (bytes4) {\n      require(from == address(0x0), \"Cannot send nfts to Vault directly\");\n      return IERCReceiver.onERCReceived.selector;\n    }\n    \n\n\n\n}",
  "sourcePath": "/Users/fenzyresearch/Downloads/DataToken/contracts/Socials.sol",
  "compiler": {
    "name": "solc",
    "version": "0.8.0+commit.c7dfd78e.Emscripten.clang"
  },
  "schemaVersion": "3.4.6",
  "updatedAt": "2022-05-20T12:17:05.246Z",
  "devdoc": {
    "kind": "dev",
    "methods": {
      "owner()": {
        "details": "Returns the address of the current owner."
      },
      "renounceOwnership()": {
        "details": "Leaves the contract without owner. It will not be possible to call `onlyOwner` functions anymore. Can only be called by the current owner. NOTE: Renouncing ownership will leave the contract without an owner, thereby removing any functionality that is only available to the owner."
      },
      "transferOwnership(address)": {
        "details": "Transfers ownership of the contract to a new account (`newOwner`). Can only be called by the current owner."
      }
    },
    "version": 1
  },
  "userdoc": {
    "kind": "user",
    "methods": {},
    "version": 1
  }
}